{
  "address": "0x7642F12925D536bFD188AaB2da3b77ebd2Edce56",
  "abi": [
    {
      "inputs": [
        {
          "internalType": "contract ENS",
          "name": "ens",
          "type": "address"
        },
        {
          "internalType": "string[]",
          "name": "gateways",
          "type": "string[]"
        }
      ],
      "stateMutability": "nonpayable",
      "type": "constructor"
    },
    {
      "inputs": [
        {
          "internalType": "bytes",
          "name": "dns",
          "type": "bytes"
        }
      ],
      "name": "DNSDecodingFailed",
      "type": "error"
    },
    {
      "inputs": [
        {
          "internalType": "string",
          "name": "ens",
          "type": "string"
        }
      ],
      "name": "DNSEncodingFailed",
      "type": "error"
    },
    {
      "inputs": [],
      "name": "EmptyAddress",
      "type": "error"
    },
    {
      "inputs": [
        {
          "internalType": "uint16",
          "name": "status",
          "type": "uint16"
        },
        {
          "internalType": "string",
          "name": "message",
          "type": "string"
        }
      ],
      "name": "HttpError",
      "type": "error"
    },
    {
      "inputs": [],
      "name": "InvalidBatchGatewayResponse",
      "type": "error"
    },
    {
      "inputs": [
        {
          "internalType": "address",
          "name": "sender",
          "type": "address"
        },
        {
          "internalType": "string[]",
          "name": "urls",
          "type": "string[]"
        },
        {
          "internalType": "bytes",
          "name": "callData",
          "type": "bytes"
        },
        {
          "internalType": "bytes4",
          "name": "callbackFunction",
          "type": "bytes4"
        },
        {
          "internalType": "bytes",
          "name": "extraData",
          "type": "bytes"
        }
      ],
      "name": "OffchainLookup",
      "type": "error"
    },
    {
      "inputs": [
        {
          "internalType": "bytes",
          "name": "errorData",
          "type": "bytes"
        }
      ],
      "name": "ResolverError",
      "type": "error"
    },
    {
      "inputs": [
        {
          "internalType": "bytes",
          "name": "name",
          "type": "bytes"
        },
        {
          "internalType": "address",
          "name": "resolver",
          "type": "address"
        }
      ],
      "name": "ResolverNotContract",
      "type": "error"
    },
    {
      "inputs": [
        {
          "internalType": "bytes",
          "name": "name",
          "type": "bytes"
        }
      ],
      "name": "ResolverNotFound",
      "type": "error"
    },
    {
      "inputs": [
        {
          "internalType": "string",
          "name": "primary",
          "type": "string"
        },
        {
          "internalType": "bytes",
          "name": "primaryAddress",
          "type": "bytes"
        }
      ],
      "name": "ReverseAddressMismatch",
      "type": "error"
    },
    {
      "inputs": [
        {
          "internalType": "bytes4",
          "name": "selector",
          "type": "bytes4"
        }
      ],
      "name": "UnsupportedResolverProfile",
      "type": "error"
    },
    {
      "anonymous": false,
      "inputs": [
        {
          "indexed": true,
          "internalType": "address",
          "name": "previousOwner",
          "type": "address"
        },
        {
          "indexed": true,
          "internalType": "address",
          "name": "newOwner",
          "type": "address"
        }
      ],
      "name": "OwnershipTransferred",
      "type": "event"
    },
    {
      "inputs": [
        {
          "internalType": "uint256",
          "name": "",
          "type": "uint256"
        }
      ],
      "name": "batchGateways",
      "outputs": [
        {
          "internalType": "string",
          "name": "",
          "type": "string"
        }
      ],
      "stateMutability": "view",
      "type": "function"
    },
    {
      "inputs": [
        {
          "components": [
            {
              "components": [
                {
                  "internalType": "address",
                  "name": "target",
                  "type": "address"
                },
                {
                  "internalType": "bytes",
                  "name": "call",
                  "type": "bytes"
                },
                {
                  "internalType": "bytes",
                  "name": "data",
                  "type": "bytes"
                },
                {
                  "internalType": "uint256",
                  "name": "flags",
                  "type": "uint256"
                }
              ],
              "internalType": "struct CCIPBatcher.Lookup[]",
              "name": "lookups",
              "type": "tuple[]"
            },
            {
              "internalType": "string[]",
              "name": "gateways",
              "type": "string[]"
            }
          ],
          "internalType": "struct CCIPBatcher.Batch",
          "name": "batch",
          "type": "tuple"
        }
      ],
      "name": "ccipBatch",
      "outputs": [
        {
          "components": [
            {
              "components": [
                {
                  "internalType": "address",
                  "name": "target",
                  "type": "address"
                },
                {
                  "internalType": "bytes",
                  "name": "call",
                  "type": "bytes"
                },
                {
                  "internalType": "bytes",
                  "name": "data",
                  "type": "bytes"
                },
                {
                  "internalType": "uint256",
                  "name": "flags",
                  "type": "uint256"
                }
              ],
              "internalType": "struct CCIPBatcher.Lookup[]",
              "name": "lookups",
              "type": "tuple[]"
            },
            {
              "internalType": "string[]",
              "name": "gateways",
              "type": "string[]"
            }
          ],
          "internalType": "struct CCIPBatcher.Batch",
          "name": "",
          "type": "tuple"
        }
      ],
      "stateMutability": "view",
      "type": "function"
    },
    {
      "inputs": [
        {
          "internalType": "bytes",
          "name": "response",
          "type": "bytes"
        },
        {
          "internalType": "bytes",
          "name": "extraData",
          "type": "bytes"
        }
      ],
      "name": "ccipBatchCallback",
      "outputs": [
        {
          "components": [
            {
              "components": [
                {
                  "internalType": "address",
                  "name": "target",
                  "type": "address"
                },
                {
                  "internalType": "bytes",
                  "name": "call",
                  "type": "bytes"
                },
                {
                  "internalType": "bytes",
                  "name": "data",
                  "type": "bytes"
                },
                {
                  "internalType": "uint256",
                  "name": "flags",
                  "type": "uint256"
                }
              ],
              "internalType": "struct CCIPBatcher.Lookup[]",
              "name": "lookups",
              "type": "tuple[]"
            },
            {
              "internalType": "string[]",
              "name": "gateways",
              "type": "string[]"
            }
          ],
          "internalType": "struct CCIPBatcher.Batch",
          "name": "batch",
          "type": "tuple"
        }
      ],
      "stateMutability": "view",
      "type": "function"
    },
    {
      "inputs": [
        {
          "internalType": "bytes",
          "name": "response",
          "type": "bytes"
        },
        {
          "internalType": "bytes",
          "name": "extraData",
          "type": "bytes"
        }
      ],
      "name": "ccipReadCallback",
      "outputs": [],
      "stateMutability": "view",
      "type": "function"
    },
    {
      "inputs": [
        {
          "internalType": "bytes",
          "name": "name",
          "type": "bytes"
        }
      ],
      "name": "findResolver",
      "outputs": [
        {
          "internalType": "address",
          "name": "",
          "type": "address"
        },
        {
          "internalType": "bytes32",
          "name": "",
          "type": "bytes32"
        },
        {
          "internalType": "uint256",
          "name": "",
          "type": "uint256"
        }
      ],
      "stateMutability": "view",
      "type": "function"
    },
    {
      "inputs": [],
      "name": "owner",
      "outputs": [
        {
          "internalType": "address",
          "name": "",
          "type": "address"
        }
      ],
      "stateMutability": "view",
      "type": "function"
    },
    {
      "inputs": [],
      "name": "registry",
      "outputs": [
        {
          "internalType": "contract ENS",
          "name": "",
          "type": "address"
        }
      ],
      "stateMutability": "view",
      "type": "function"
    },
    {
      "inputs": [],
      "name": "renounceOwnership",
      "outputs": [],
      "stateMutability": "nonpayable",
      "type": "function"
    },
    {
      "inputs": [
        {
          "internalType": "bytes",
          "name": "name",
          "type": "bytes"
        }
      ],
      "name": "requireResolver",
      "outputs": [
        {
          "components": [
            {
              "internalType": "bytes",
              "name": "name",
              "type": "bytes"
            },
            {
              "internalType": "uint256",
              "name": "offset",
              "type": "uint256"
            },
            {
              "internalType": "bytes32",
              "name": "node",
              "type": "bytes32"
            },
            {
              "internalType": "address",
              "name": "resolver",
              "type": "address"
            },
            {
              "internalType": "bool",
              "name": "extended",
              "type": "bool"
            }
          ],
          "internalType": "struct AbstractUniversalResolver.ResolverInfo",
          "name": "info",
          "type": "tuple"
        }
      ],
      "stateMutability": "view",
      "type": "function"
    },
    {
      "inputs": [
        {
          "internalType": "bytes",
          "name": "name",
          "type": "bytes"
        },
        {
          "internalType": "bytes",
          "name": "data",
          "type": "bytes"
        }
      ],
      "name": "resolve",
      "outputs": [
        {
          "internalType": "bytes",
          "name": "",
          "type": "bytes"
        },
        {
          "internalType": "address",
          "name": "",
          "type": "address"
        }
      ],
      "stateMutability": "view",
      "type": "function"
    },
    {
      "inputs": [
        {
          "internalType": "bytes",
          "name": "response",
          "type": "bytes"
        },
        {
          "internalType": "bytes",
          "name": "extraData",
          "type": "bytes"
        }
      ],
      "name": "resolveBatchCallback",
      "outputs": [],
      "stateMutability": "view",
      "type": "function"
    },
    {
      "inputs": [
        {
          "components": [
            {
              "internalType": "bytes",
              "name": "name",
              "type": "bytes"
            },
            {
              "internalType": "uint256",
              "name": "offset",
              "type": "uint256"
            },
            {
              "internalType": "bytes32",
              "name": "node",
              "type": "bytes32"
            },
            {
              "internalType": "address",
              "name": "resolver",
              "type": "address"
            },
            {
              "internalType": "bool",
              "name": "extended",
              "type": "bool"
            }
          ],
          "internalType": "struct AbstractUniversalResolver.ResolverInfo",
          "name": "info",
          "type": "tuple"
        },
        {
          "components": [
            {
              "internalType": "address",
              "name": "target",
              "type": "address"
            },
            {
              "internalType": "bytes",
              "name": "call",
              "type": "bytes"
            },
            {
              "internalType": "bytes",
              "name": "data",
              "type": "bytes"
            },
            {
              "internalType": "uint256",
              "name": "flags",
              "type": "uint256"
            }
          ],
          "internalType": "struct CCIPBatcher.Lookup[]",
          "name": "lookups",
          "type": "tuple[]"
        },
        {
          "internalType": "bytes",
          "name": "extraData",
          "type": "bytes"
        }
      ],
      "name": "resolveCallback",
      "outputs": [
        {
          "internalType": "bytes",
          "name": "result",
          "type": "bytes"
        },
        {
          "internalType": "address",
          "name": "resolver",
          "type": "address"
        }
      ],
      "stateMutability": "pure",
      "type": "function"
    },
    {
      "inputs": [
        {
          "internalType": "bytes",
          "name": "name",
          "type": "bytes"
        },
        {
          "internalType": "bytes",
          "name": "data",
          "type": "bytes"
        },
        {
          "internalType": "string[]",
          "name": "gateways",
          "type": "string[]"
        }
      ],
      "name": "resolveWithGateways",
      "outputs": [
        {
          "internalType": "bytes",
          "name": "",
          "type": "bytes"
        },
        {
          "internalType": "address",
          "name": "",
          "type": "address"
        }
      ],
      "stateMutability": "view",
      "type": "function"
    },
    {
      "inputs": [
        {
          "internalType": "bytes",
          "name": "lookupAddress",
          "type": "bytes"
        },
        {
          "internalType": "uint256",
          "name": "coinType",
          "type": "uint256"
        }
      ],
      "name": "reverse",
      "outputs": [
        {
          "internalType": "string",
          "name": "",
          "type": "string"
        },
        {
          "internalType": "address",
          "name": "",
          "type": "address"
        },
        {
          "internalType": "address",
          "name": "",
          "type": "address"
        }
      ],
      "stateMutability": "view",
      "type": "function"
    },
    {
      "inputs": [
        {
          "components": [
            {
              "internalType": "bytes",
              "name": "name",
              "type": "bytes"
            },
            {
              "internalType": "uint256",
              "name": "offset",
              "type": "uint256"
            },
            {
              "internalType": "bytes32",
              "name": "node",
              "type": "bytes32"
            },
            {
              "internalType": "address",
              "name": "resolver",
              "type": "address"
            },
            {
              "internalType": "bool",
              "name": "extended",
              "type": "bool"
            }
          ],
          "internalType": "struct AbstractUniversalResolver.ResolverInfo",
          "name": "info",
          "type": "tuple"
        },
        {
          "components": [
            {
              "internalType": "address",
              "name": "target",
              "type": "address"
            },
            {
              "internalType": "bytes",
              "name": "call",
              "type": "bytes"
            },
            {
              "internalType": "bytes",
              "name": "data",
              "type": "bytes"
            },
            {
              "internalType": "uint256",
              "name": "flags",
              "type": "uint256"
            }
          ],
          "internalType": "struct CCIPBatcher.Lookup[]",
          "name": "lookups",
          "type": "tuple[]"
        },
        {
          "internalType": "bytes",
          "name": "extraData",
          "type": "bytes"
        }
      ],
      "name": "reverseAddressCallback",
      "outputs": [
        {
          "internalType": "string",
          "name": "primary",
          "type": "string"
        },
        {
          "internalType": "address",
          "name": "resolver",
          "type": "address"
        },
        {
          "internalType": "address",
          "name": "reverseResolver",
          "type": "address"
        }
      ],
      "stateMutability": "pure",
      "type": "function"
    },
    {
      "inputs": [
        {
          "components": [
            {
              "internalType": "bytes",
              "name": "name",
              "type": "bytes"
            },
            {
              "internalType": "uint256",
              "name": "offset",
              "type": "uint256"
            },
            {
              "internalType": "bytes32",
              "name": "node",
              "type": "bytes32"
            },
            {
              "internalType": "address",
              "name": "resolver",
              "type": "address"
            },
            {
              "internalType": "bool",
              "name": "extended",
              "type": "bool"
            }
          ],
          "internalType": "struct AbstractUniversalResolver.ResolverInfo",
          "name": "infoRev",
          "type": "tuple"
        },
        {
          "components": [
            {
              "internalType": "address",
              "name": "target",
              "type": "address"
            },
            {
              "internalType": "bytes",
              "name": "call",
              "type": "bytes"
            },
            {
              "internalType": "bytes",
              "name": "data",
              "type": "bytes"
            },
            {
              "internalType": "uint256",
              "name": "flags",
              "type": "uint256"
            }
          ],
          "internalType": "struct CCIPBatcher.Lookup[]",
          "name": "lookups",
          "type": "tuple[]"
        },
        {
          "internalType": "bytes",
          "name": "extraData",
          "type": "bytes"
        }
      ],
      "name": "reverseNameCallback",
      "outputs": [
        {
          "internalType": "string",
          "name": "primary",
          "type": "string"
        },
        {
          "internalType": "address",
          "name": "",
          "type": "address"
        },
        {
          "internalType": "address",
          "name": "",
          "type": "address"
        }
      ],
      "stateMutability": "view",
      "type": "function"
    },
    {
      "inputs": [
        {
          "internalType": "bytes",
          "name": "lookupAddress",
          "type": "bytes"
        },
        {
          "internalType": "uint256",
          "name": "coinType",
          "type": "uint256"
        },
        {
          "internalType": "string[]",
          "name": "gateways",
          "type": "string[]"
        }
      ],
      "name": "reverseWithGateways",
      "outputs": [
        {
          "internalType": "string",
          "name": "",
          "type": "string"
        },
        {
          "internalType": "address",
          "name": "",
          "type": "address"
        },
        {
          "internalType": "address",
          "name": "",
          "type": "address"
        }
      ],
      "stateMutability": "view",
      "type": "function"
    },
    {
      "inputs": [
        {
          "internalType": "string[]",
          "name": "gateways",
          "type": "string[]"
        }
      ],
      "name": "setBatchGateways",
      "outputs": [],
      "stateMutability": "nonpayable",
      "type": "function"
    },
    {
      "inputs": [
        {
          "internalType": "bytes4",
          "name": "interfaceID",
          "type": "bytes4"
        }
      ],
      "name": "supportsInterface",
      "outputs": [
        {
          "internalType": "bool",
          "name": "",
          "type": "bool"
        }
      ],
      "stateMutability": "view",
      "type": "function"
    },
    {
      "inputs": [
        {
          "internalType": "address",
          "name": "newOwner",
          "type": "address"
        }
      ],
      "name": "transferOwnership",
      "outputs": [],
      "stateMutability": "nonpayable",
      "type": "function"
    }
  ],
  "transactionHash": "0xd3bd218726d12b583e70d67beacea60bcdad750406e204935bb845120c492f5e",
  "args": [
    "0x00000000000C2E074eC69A0dFb2997BA6C7d2e1e",
    [
      "https://ccip-v3.ens.xyz",
      "x-batch-gateway:true"
    ]
  ],
  "numDeployments": 8,
  "solcInputHash": "8c375bff7a496fad3b21d28bce9053fd",
  "bytecode": "0x60a06040523480156200001157600080fd5b506040516200478a3803806200478a8339810160408190526200003491620001da565b8062000040336200006a565b805162000055906001906020840190620000ba565b5050506001600160a01b03166080526200049c565b600080546001600160a01b038381166001600160a01b0319831681178455604051919092169283917f8be0079c531659141344cd1fd0a4f28419497f9722a3daafe3b4186f6b6457e09190a35050565b82805482825590600052602060002090810192821562000105579160200282015b82811115620001055782518290620000f49082620003d0565b5091602001919060010190620000db565b506200011392915062000117565b5090565b80821115620001135760006200012e828262000138565b5060010162000117565b508054620001469062000341565b6000825580601f1062000157575050565b601f0160209004906000526020600020908101906200017791906200017a565b50565b5b808211156200011357600081556001016200017b565b634e487b7160e01b600052604160045260246000fd5b604051601f8201601f191681016001600160401b0381118282101715620001d257620001d262000191565b604052919050565b6000806040808486031215620001ef57600080fd5b83516001600160a01b03811681146200020757600080fd5b602085810151919450906001600160401b03808211156200022757600080fd5b8187019150601f88818401126200023d57600080fd5b82518281111562000252576200025262000191565b8060051b62000263868201620001a7565b918252848101860191868101908c8411156200027e57600080fd5b87870192505b838310156200032e578251868111156200029e5760008081fd5b8701603f81018e13620002b15760008081fd5b8881015187811115620002c857620002c862000191565b620002db818801601f19168b01620001a7565b8181528f8c838501011115620002f15760008081fd5b60005b8281101562000311578381018d01518282018d01528b01620002f4565b5060009181018b0191909152835250918701919087019062000284565b8099505050505050505050509250929050565b600181811c908216806200035657607f821691505b6020821081036200037757634e487b7160e01b600052602260045260246000fd5b50919050565b601f821115620003cb57600081815260208120601f850160051c81016020861015620003a65750805b601f850160051c820191505b81811015620003c757828155600101620003b2565b5050505b505050565b81516001600160401b03811115620003ec57620003ec62000191565b6200040481620003fd845462000341565b846200037d565b602080601f8311600181146200043c5760008415620004235750858301515b600019600386901b1c1916600185901b178555620003c7565b600085815260208120601f198616915b828110156200046d578886015182559484019460019091019084016200044c565b50858210156200048c5787850151600019600388901b60f8161c191681555b5050505050600190811b01905550565b6080516142cb620004bf600039600081816102100152611ebc01526142cb6000f3fe608060405234801561001057600080fd5b506004361061016c5760003560e01c80639f28e99d116100cd578063b7d6ca6411610081578063d0d444a911610066578063d0d444a914610353578063ef46c0b814610366578063f2fde38b1461037957600080fd5b8063b7d6ca6414610320578063c285238a1461033357600080fd5b8063a1472844116100b2578063a1472844146102c2578063a1cbcbaf146102d5578063b536af761461030d57600080fd5b80639f28e99d1461028f578063a072a4fb146102af57600080fd5b8063715018a6116101245780638708f498116101095780638708f4981461024a5780638da5cb5b1461025d5780639061b9231461026e57600080fd5b8063715018a6146102035780637b1039991461020b57600080fd5b8063491fc4f911610155578063491fc4f9146101b95780635c016c16146101ce5780635d78a217146101e157600080fd5b806301ffc9a714610171578063039128c014610199575b600080fd5b61018461017f366004612c05565b61038c565b60405190151581526020015b60405180910390f35b6101ac6101a7366004612c22565b6103dc565b6040516101909190612c8b565b6101cc6101c7366004612ce7565b610488565b005b6101cc6101dc366004612f13565b6105a1565b6101f46101ef366004612f48565b6105c0565b60405161019093929190612f8d565b6101cc6106af565b6102327f000000000000000000000000000000000000000000000000000000000000000081565b6040516001600160a01b039091168152602001610190565b6101f461025836600461301d565b6106c3565b6000546001600160a01b0316610232565b61028161027c366004612ce7565b6107e3565b6040516101909291906130ab565b6102a261029d366004613194565b6108d2565b6040516101909190613376565b6102816102bd3660046133b8565b610ad9565b6102816102d036600461344d565b610c86565b6102e86102e33660046134e1565b610da9565b604080516001600160a01b039094168452602084019290925290820152606001610190565b6102a261031b366004612ce7565b610dc6565b6101f461032e366004613516565b611055565b6103466103413660046134e1565b611117565b60405161019091906135d7565b6101f46103613660046133b8565b61122d565b6101cc6103743660046135ea565b611392565b6101cc61038736600461364e565b611414565b60007f6cd2d09b000000000000000000000000000000000000000000000000000000006001600160e01b0319831614806103d657506301ffc9a760e01b6001600160e01b03198316145b92915050565b600181815481106103ec57600080fd5b9060005260206000200160009150905080546104079061366b565b80601f01602080910402602001604051908101604052809291908181526020018280546104339061366b565b80156104805780601f1061045557610100808354040283529160200191610480565b820191906000526020600020905b81548152906001019060200180831161046357829003601f168201915b505050505081565b600061049684860186613194565b9050600080806104a8858701876136af565b9250925092508260800151156105425760005b845151811015610540576000856000015182815181106104dd576104dd61377f565b602002602001015190506104fb816020015160448101510160240190565b60208201526060810151600e1660000361052d57806040015180602001905181019061052791906137da565b60408201525b508061053881613825565b9150506104bb565b505b6105973083858760000151856040516024016105609392919061383e565b60408051601f198184030181529190526020810180516001600160e01b03166001600160e01b0319909316929092179091526114a4565b5050505050505050565b6105a96114c3565b80516105bc906001906020840190612b2f565b5050565b60606000806106a185856001805480602002602001604051908101604052809291908181526020016000905b8282101561069857838290600052602060002001805461060b9061366b565b80601f01602080910402602001604051908101604052809291908181526020018280546106379061366b565b80156106845780601f1061065957610100808354040283529160200191610684565b820191906000526020600020905b81548152906001019060200180831161066757829003601f168201915b5050505050815260200190600101906105ec565b50505050611055565b9250925092505b9250925092565b6106b76114c3565b6106c1600061151d565b565b60606000806000848060200190518101906106de9190613901565b9050610716878760008181106106f6576106f661377f565b905060200281019061070891906139b2565b610711906139d2565b611585565b80602001905181019061072991906137da565b9350835160000361076457600061074660808a0160608b0161364e565b604051806020016040528060008152509190935093509350506107d9565b600061077261034186611649565b90506107d68161078a8360400151856020015161178b565b846040015163d0d444a960e01b86600001518a8f60600160208101906107b0919061364e565b6040516020016107c2939291906139de565b60405160208183030381529060405261192b565b50505b9450945094915050565b606060006108c5868686866001805480602002602001604051908101604052809291908181526020016000905b828210156108bc57838290600052602060002001805461082f9061366b565b80601f016020809104026020016040519081016040528092919081815260200182805461085b9061366b565b80156108a85780601f1061087d576101008083540402835291602001916108a8565b820191906000526020600020905b81548152906001019060200180831161088b57829003601f168201915b505050505081526020019060010190610810565b50505050610c86565b9150915094509492505050565b604080518082019091526060808252602082015260005b825151811015610acb5760008360000151828151811061090b5761090b61377f565b6020026020010151905060206010178160600151166000036109d35760006109368260000151611b2a565b610941576010610944565b60205b9050825b8551518110156109d05782600001516001600160a01b0316866000015182815181106109765761097661377f565b6020026020010151600001516001600160a01b0316036109be5781866000015182815181106109a7576109a761377f565b602002602001015160600181815117915081815250505b806109c881613825565b915050610948565b50505b6000602082606001511660001490506000806109f9831585600001518660200151611b5f565b915091508180610a105750828015610a1057508051155b15610a715760608401805160401790528051600003610a6c578360200151610a3790613a1d565b6040516001600160e01b0319909116602082015260240160408051601f19818403018152919052606085018051600817905290505b610aad565b630556f18360e41b610a8282613a1d565b6001600160e01b03191603610aa1576060840180516001179052610aad565b60608401805160421790525b60409093019290925250819050610ac381613825565b9150506108e9565b50610ad582611bd8565b5090565b6060600080610aea84860186613a51565b90508015610c505760008667ffffffffffffffff811115610b0d57610b0d612d53565b604051908082528060200260200182016040528015610b4057816020015b6060815260200190600190039081610b2b5790505b50905060005b87811015610c27576000898983818110610b6257610b6261377f565b9050602002810190610b7491906139b2565b610b7d906139d2565b90506008816060015116600003610c1457898983818110610ba057610ba061377f565b9050602002810190610bb291906139b2565b610bc0906040810190613a6c565b8080601f0160208091040260200160405190810160405280939291908181526020018383808284376000920191909152505085518692508591508110610c0857610c0861377f565b60200260200101819052505b5080610c1f81613825565b915050610b46565b5080604051602001610c399190613ab3565b604051602081830303815290604052935050610c69565b610c66878760008181106106f6576106f661377f565b92505b610c796080890160608a0161364e565b9150509550959350505050565b60606000807fac9650d800000000000000000000000000000000000000000000000000000000610cb68688613b15565b6001600160e01b031916149050610d9e610d0589898080601f01602080910402602001604051908101604052809392919081815260200183838082843760009201919091525061111792505050565b82610d4e57610d4988888080601f016020809104026020016040519081016040528093929190818152602001838380828437600092019190915250611dd592505050565b610d68565b610d5b876004818b613b45565b810190610d689190613bef565b60408051851515602082015288917fa072a4fb0000000000000000000000000000000000000000000000000000000091016107c2565b509550959350505050565b6000806000610db9846000611e27565b9250925092509193909250565b6040805180820190915260608082526020820152600080610de986880188613c24565b915091508051825114610e0f5760405163252e18f560e11b815260040160405180910390fd5b610e1b84860186613194565b92506000805b84515181101561101f57600085600001518281518110610e4357610e4361377f565b60200260200101519050604081606001511660000361100c578351831015611000576000848481518110610e7957610e7961377f565b60200260200101519050858481518110610e9557610e9561377f565b602002602001015115610eb2576060820180516044179052610ffa565b6000610ec18360400151611f64565b9050600081600001516001600160a01b03168260600151848460800151604051602401610eef929190613cda565b60408051601f198184030181529181526020820180516001600160e01b03166001600160e01b0319909416939093179092529051610f2d9190613cff565b600060405180830381855afa9150503d8060008114610f68576040519150601f19603f3d011682016040523d82523d6000602084013e610f6d565b606091505b50935090508015610fcb5760608401805160401790528251600003610fc65760608201516040516001600160e01b0319909116602082015260240160408051601f19818403018152919052606085018051600817905292505b610ff7565b630556f18360e41b610fdc84613a1d565b6001600160e01b03191614610ff75760608401805160421790525b50505b60408201525b61100983613825565b92505b508061101781613825565b915050610e21565b50815181146110415760405163252e18f560e11b815260040160405180910390fd5b61104a84611bd8565b505050949350505050565b6060600080600061107161034161106c8989611fae565b611649565b905061110d816110d9836040015160405160240161109191815260200190565b60408051601f198184030181529190526020810180516001600160e01b03167f691f343100000000000000000000000000000000000000000000000000000000179052611dd5565b87638708f49860e01b60405180606001604052808d81526020018c81526020018b8152506040516020016107c29190613d11565b5093509350939050565b6040805160a08101825260608082526000602083018190529282018390528101829052608081019190915261114b82610da9565b602084015260408301526001600160a01b03166060820181905261118d5781604051630ee413fd60e31b81526004016111849190612c8b565b60405180910390fd5b6111a28160600151639061b92360e01b6120f4565b156111b35760016080820152611227565b6020810151156111d85781604051630ee413fd60e31b81526004016111849190612c8b565b80606001516001600160a01b03163b6000036112275760608101516040517f1e9535f20000000000000000000000000000000000000000000000000000000081526111849184916004016130ab565b90815290565b60606000808261123f85870187613d54565b909550925090506060600288900361131657600e89896000816112645761126461377f565b905060200281019061127691906139b2565b606001351615806112b15750600e898960018181106112975761129761377f565b90506020028101906112a991906139b2565b606001351615155b156112ef576112ec898960008181106112cc576112cc61377f565b90506020028101906112de91906139b2565b6112e7906139d2565b61217d565b90505b80516000036113115761130e898960018181106112cc576112cc61377f565b90505b61132f565b61132c898960008181106112cc576112cc61377f565b90505b611339828261227c565b6113735784816040517fef9c03ce000000000000000000000000000000000000000000000000000000008152600401611184929190613cda565b61138360808b0160608c0161364e565b93505050955095509592505050565b6000818060200190518101906113a89190613dd7565b905061140f816000015182602001518584604001516040516024016113ce929190613cda565b60408051601f198184030181529190526020810180516001600160e01b03166001600160e01b031990931692909217909152606084015160808501516122a1565b505050565b61141c6114c3565b6001600160a01b0381166114985760405162461bcd60e51b815260206004820152602660248201527f4f776e61626c653a206e6577206f776e657220697320746865207a65726f206160448201527f64647265737300000000000000000000000000000000000000000000000000006064820152608401611184565b6114a18161151d565b50565b6105bc8282600060e01b604051806020016040528060008152506122a1565b6000546001600160a01b031633146106c15760405162461bcd60e51b815260206004820181905260248201527f4f776e61626c653a2063616c6c6572206973206e6f7420746865206f776e65726044820152606401611184565b600080546001600160a01b038381167fffffffffffffffffffffffff0000000000000000000000000000000000000000831681178455604051919092169283917f8be0079c531659141344cd1fd0a4f28419497f9722a3daafe3b4186f6b6457e09190a35050565b604081015160608201516004161561159f57805160208201fd5b60608201516002161561160857637b1c461b60e01b6115bd82613a1d565b6001600160e01b031916036115d457805160208201fd5b806040517f95c0c7520000000000000000000000000000000000000000000000000000000081526004016111849190612c8b565b6060820151600816156116445761161e81613a1d565b604051637b1c461b60e01b81526001600160e01b03199091166004820152602401611184565b919050565b80516060906000819003611673575050604080518082019091526001815260006020820152919050565b8060020167ffffffffffffffff81111561168f5761168f612d53565b6040519080825280601f01601f1916602001820160405280156116b9576020820181803683370190505b509150602082018060005b838110156117475760008682815181106116e0576116e061377f565b01602001516001600160f81b0319169050601760f91b819003611734576117078484612455565b93508360000361172c5786604051639a4c3e3b60e01b81526004016111849190612c8b565b83925061173e565b6001830192508083525b506001016116c4565b506117528282612455565b9150816000036117775784604051639a4c3e3b60e01b81526004016111849190612c8b565b60008253601f840182038452505050919050565b6060600080611799846124c8565b63ffffffff16119050806117ae5760016117b1565b60025b60ff1667ffffffffffffffff8111156117cc576117cc612d53565b6040519080825280602002602001820160405280156117ff57816020015b60608152602001906001900390816117ea5790505b509150603c831461184d57604051602481018590526044810184905260640160408051601f198184030181529190526020810180516001600160e01b03166378e5bf0360e11b17905261189e565b6040516024810185905260440160408051601f198184030181529190526020810180516001600160e01b03167f3b3b57de000000000000000000000000000000000000000000000000000000001790525b826000815181106118b1576118b161377f565b6020026020010181905250801561192457604051602481018590526380000000604482015260640160408051601f198184030181529190526020810180516001600160e01b03166378e5bf0360e11b1790528251839060019081106119185761191861377f565b60200260200101819052505b5092915050565b60006040518060400160405280865167ffffffffffffffff81111561195257611952612d53565b6040519080825280602002602001820160405280156119b757816020015b6119a4604051806080016040528060006001600160a01b031681526020016060815260200160608152602001600081525090565b8152602001906001900390816119705790505b508152602001859052905060005b8551811015611a9f576000826000015182815181106119e6576119e661377f565b602090810291909101015160608901516001600160a01b031681526080890151909150611a2c57868281518110611a1f57611a1f61377f565b6020026020010151611a87565b8760000151878381518110611a4357611a4361377f565b6020026020010151604051602401611a5c929190613cda565b60408051601f198184030181529190526020810180516001600160e01b0316639061b92360e01b1790525b60209091015280611a9781613825565b9150506119c5565b50611b2230306001600160a01b0316639f28e99d84604051602401611ac49190613376565b604051602081830303815290604052915060e01b6020820180516001600160e01b03838183161783525050505063491fc4f960e01b898787604051602001611b0e93929190613e9f565b6040516020818303038152906040526122a1565b505050505050565b6000306001600160a01b03831603611b4457506001919050565b6113885a6000806000808786fa50815a909103109392505050565b60006060836001600160a01b031685611b7a5761c350611b7c565b5a5b84604051611b8a9190613cff565b6000604051808303818686fa925050503d8060008114611bc6576040519150601f19603f3d011682016040523d82523d6000602084013e611bcb565b606091505b5090969095509350505050565b80515160009067ffffffffffffffff811115611bf657611bf6612d53565b604051908082528060200260200182016040528015611c5457816020015b611c41604051806060016040528060006001600160a01b0316815260200160608152602001606081525090565b815260200190600190039081611c145790505b5090506000805b835151811015611d1557600084600001518281518110611c7d57611c7d61377f565b602002602001015190506040816060015116600003611d02576000611ca58260400151611f64565b9050604051806060016040528082600001516001600160a01b03168152602001826020015181526020018260400151815250858580611ce390613825565b965081518110611cf557611cf561377f565b6020026020010181905250505b5080611d0d81613825565b915050611c5b565b50801561140f5780825230836020015183604051602401611d369190613ed4565b60408051601f19818403018152918152602080830180516001600160e01b03167fa780bab60000000000000000000000000000000000000000000000000000000017905290517fb536af760000000000000000000000000000000000000000000000000000000091611daa91899101613376565b60408051601f1981840301815290829052630556f18360e41b82526111849594939291600401613f6e565b604080516001808252818301909252606091816020015b6060815260200190600190039081611dec5790505090508181600081518110611e1757611e1761377f565b6020026020010181905250919050565b6000806000806000611e398787612509565b90925090508115611f5b576000806000611e538a85611e27565b9250925092508185604051602001611e75929190918252602082015260400190565b60408051808303601f190181529082905280516020909101207f0178b8bf0000000000000000000000000000000000000000000000000000000082526004820181905297507f00000000000000000000000000000000000000000000000000000000000000006001600160a01b031690630178b8bf90602401602060405180830381865afa158015611f0b573d6000803e3d6000fd5b505050506040513d601f19601f82011682018060405250810190611f2f9190613fd2565b97506001600160a01b038816611f4757828782611f4b565b87878a5b97509750975050505050506106a8565b50509250925092565b6040805160a08101825260008082526060602083018190529282018390528282015260808101919091526103d6611fa9836004808651611fa49190613fef565b6126a3565b612725565b60608251600003611feb576040517f7138356f00000000000000000000000000000000000000000000000000000000815260040160405180910390fd5b611ff483612791565b601760f91b603c8414612057576380000000841461201c576120178460016127fa565b61208e565b6040518060400160405280600781526020017f64656661756c740000000000000000000000000000000000000000000000000081525061208e565b6040518060400160405280600481526020017f61646472000000000000000000000000000000000000000000000000000000008152505b601760f91b6040518060400160405280600781526020017f72657665727365000000000000000000000000000000000000000000000000008152506040516020016120dd959493929190614002565b604051602081830303815290604052905092915050565b604080516001600160e01b03198316602480830191909152825180830390910181526044909101909152602080820180516001600160e01b03166301ffc9a760e01b178152825160009392849283928392918391908a617530fa92503d91506000519050828015612166575060208210155b80156121725750600081115b979650505050505050565b6060600061218a83611585565b90506000836020015161219c90613a1d565b90507fc4c4a822000000000000000000000000000000000000000000000000000000006001600160e01b031982160161222d576000828060200190518101906121e59190613fd2565b90506001600160a01b03811615612227576040516bffffffffffffffffffffffff19606083901b16602082015260340160405160208183030381529060405293505b50612275565b7f0e3481fa000000000000000000000000000000000000000000000000000000006001600160e01b0319821601612275578180602001905181019061227291906137da565b92505b5050919050565b60008151835114801561229a575061229a83600084600087516128d1565b9392505050565b6000806122b76122b087611b2a565b8787611b5f565b91509150811580156122e15750630556f18360e41b6122d582613a1d565b6001600160e01b031916145b156123815760006122f182611f64565b9050866001600160a01b031681600001516001600160a01b03160361237f57308160200151826040015163ef46c0b860e01b6040518060a001604052808c6001600160a01b0316815260200186606001516001600160e01b0319168152602001866080015181526020018a6001600160e01b031916815260200189815250604051602001611daa9190614068565b505b81801561239757506001600160e01b0319841615155b1561243f57306001600160a01b03168482856040516024016123ba929190613cda565b60408051601f198184030181529181526020820180516001600160e01b03166001600160e01b03199094169390931790925290516123f89190613cff565b600060405180830381855afa9150503d8060008114612433576040519150601f19603f3d011682016040523d82523d6000602084013e612438565b606091505b5090925090505b811561244d57805160208201f35b805160208201fd5b6000806124628484613fef565b905060ff8111156124a15780600185012060005261248f600085600261248891906140d9565b60406128f4565b605b6001850153605d60428501535060425b801561192457808453806124b68560016140d9565b6124c091906140d9565b949350505050565b6000603c82036124da57506001919050565b818263ffffffff161480156124f457506380000000821615155b6124ff5760006103d6565b5063800000001890565b6000808351831061252f578360405163ba4adc2360e01b81526004016111849190612c8b565b6000848461253c81613825565b95508151811061254e5761254e61377f565b016020015160f81c905061256281856140d9565b91508451821115612588578460405163ba4adc2360e01b81526004016111849190612c8b565b8060421480156125d857508484815181106125a5576125a561377f565b6020910101516001600160f81b0319167f5b00000000000000000000000000000000000000000000000000000000000000145b801561262e5750846125eb600184613fef565b815181106125fb576125fb61377f565b6020910101516001600160f81b0319167f5d00000000000000000000000000000000000000000000000000000000000000145b1561268a576000612654866126448760016140d9565b61264f600187613fef565b61295e565b9094509050801580612664575083155b15612684578560405163ba4adc2360e01b81526004016111849190612c8b565b5061269b565b801561269b57806020858701012092505b509250929050565b82516060906126b283856140d9565b11156126bd57600080fd5b60008267ffffffffffffffff8111156126d8576126d8612d53565b6040519080825280601f01601f191660200182016040528015612702576020820181803683370190505b5090506020808201908686010161271a8282876129c3565b509095945050505050565b6040805160a08101825260008082526060602083018190529282018390528282015260808101919091528180602001905181019061276391906140ec565b60808601526001600160e01b0319166060850152604084015260208301526001600160a01b03168152919050565b805160609060011b8067ffffffffffffffff8111156127b2576127b2612d53565b6040519080825280601f01601f1916602001820160405280156127dc576020820181803683370190505b50915060208381019083016127f28282856128f4565b505050919050565b606082600060805b60088110612833576001811b8310156128265761281f81836140d9565b915061282b565b91821c915b60011c612802565b508380156128415750601082105b15612854576128516004826140d9565b90505b6000612865600283901c6040613fef565b90508067ffffffffffffffff81111561288057612880612d53565b6040519080825280601f01601f1916602001820160405280156128aa576020820181803683370190505b509350600086831b6000526020850190506128c7600082846128f4565b5050505092915050565b60006128de848484612a19565b6128e9878785612a19565b149695505050505050565b8181015b808310156129585783516101005b82851080156129155750600081115b1561294b5760031901600f82821c16600a8110612935578060570161293a565b806030015b905080865350600190940193612906565b50506020840193506128f8565b50505050565b6000808061296c8585613fef565b9050604081118061297d5750855184115b1561298f5750600091508190506129bb565b8585016020016129a181600084612a3d565b92506001820160011c6020036000518160031b1c94505050505b935093915050565b602081106129fb57815183526129da6020846140d9565b92506129e76020836140d9565b91506129f4602082613fef565b90506129c3565b905182516020929092036101000a6000190180199091169116179052565b8251600090612a2883856140d9565b1115612a3357600080fd5b5091016020012090565b6000612a9d565b811a6000602f8211603a83101615612a615750602f1981016103d6565b60478210604083111615612a7a575060361981016103d6565b60678210606083111615612a93575060561981016103d6565b5061010092915050565b50600183820182821615612ad957612ab760008651612a44565b80855360018601955060018501945060ff811115612ad757600092508195505b505b80851015612b27578451612aee600182612a44565b612af9600083612a44565b60041b17905060ff811115612b12576000925050612b27565b80855350600285019450600184019350612ad9565b509392505050565b828054828255906000526020600020908101928215612b75579160200282015b82811115612b755782518290612b6590826141d5565b5091602001919060010190612b4f565b50610ad59291505b80821115610ad5576000612b918282612b9a565b50600101612b7d565b508054612ba69061366b565b6000825580601f10612bb6575050565b601f0160209004906000526020600020908101906114a191905b80821115610ad55760008155600101612bd0565b6001600160e01b0319811681146114a157600080fd5b803561164481612be4565b600060208284031215612c1757600080fd5b813561229a81612be4565b600060208284031215612c3457600080fd5b5035919050565b60005b83811015612c56578181015183820152602001612c3e565b50506000910152565b60008151808452612c77816020860160208601612c3b565b601f01601f19169290920160200192915050565b60208152600061229a6020830184612c5f565b60008083601f840112612cb057600080fd5b50813567ffffffffffffffff811115612cc857600080fd5b602083019150836020828501011115612ce057600080fd5b9250929050565b60008060008060408587031215612cfd57600080fd5b843567ffffffffffffffff80821115612d1557600080fd5b612d2188838901612c9e565b90965094506020870135915080821115612d3a57600080fd5b50612d4787828801612c9e565b95989497509550505050565b634e487b7160e01b600052604160045260246000fd5b6040805190810167ffffffffffffffff81118282101715612d8c57612d8c612d53565b60405290565b60405160a0810167ffffffffffffffff81118282101715612d8c57612d8c612d53565b604051601f8201601f1916810167ffffffffffffffff81118282101715612dde57612dde612d53565b604052919050565b600067ffffffffffffffff821115612e0057612e00612d53565b5060051b60200190565b600067ffffffffffffffff821115612e2457612e24612d53565b50601f01601f191660200190565b600082601f830112612e4357600080fd5b8135612e56612e5182612e0a565b612db5565b818152846020838601011115612e6b57600080fd5b816020850160208301376000918101602001919091529392505050565b600082601f830112612e9957600080fd5b81356020612ea9612e5183612de6565b82815260059290921b84018101918181019086841115612ec857600080fd5b8286015b84811015612f0857803567ffffffffffffffff811115612eec5760008081fd5b612efa8986838b0101612e32565b845250918301918301612ecc565b509695505050505050565b600060208284031215612f2557600080fd5b813567ffffffffffffffff811115612f3c57600080fd5b6124c084828501612e88565b60008060408385031215612f5b57600080fd5b823567ffffffffffffffff811115612f7257600080fd5b612f7e85828601612e32565b95602094909401359450505050565b606081526000612fa06060830186612c5f565b6001600160a01b0394851660208401529290931660409091015292915050565b600060a08284031215612fd257600080fd5b50919050565b60008083601f840112612fea57600080fd5b50813567ffffffffffffffff81111561300257600080fd5b6020830191508360208260051b8501011115612ce057600080fd5b6000806000806060858703121561303357600080fd5b843567ffffffffffffffff8082111561304b57600080fd5b61305788838901612fc0565b9550602087013591508082111561306d57600080fd5b61307988838901612fd8565b9095509350604087013591508082111561309257600080fd5b5061309f87828801612e32565b91505092959194509250565b6040815260006130be6040830185612c5f565b90506001600160a01b03831660208301529392505050565b6001600160a01b03811681146114a157600080fd5b6000608082840312156130fd57600080fd5b6040516080810167ffffffffffffffff828210818311171561312157613121612d53565b8160405282935084359150613135826130d6565b9082526020840135908082111561314b57600080fd5b61315786838701612e32565b6020840152604085013591508082111561317057600080fd5b5061317d85828601612e32565b604083015250606083013560608201525092915050565b600060208083850312156131a757600080fd5b823567ffffffffffffffff808211156131bf57600080fd5b90840190604082870312156131d357600080fd5b6131db612d69565b8235828111156131ea57600080fd5b8301601f810188136131fb57600080fd5b8035613209612e5182612de6565b81815260059190911b8201860190868101908a83111561322857600080fd5b8784015b83811015613260578035878111156132445760008081fd5b6132528d8b838901016130eb565b84525091880191880161322c565b508452505050828401358281111561327757600080fd5b61328388828601612e88565b948201949094529695505050505050565b600081518084526020808501808196508360051b8101915082860160005b85811015613321578284038952815160806001600160a01b0382511686528682015181888801526132e582880182612c5f565b915050604080830151878303828901526132ff8382612c5f565b60609485015198909401979097525050988501989350908401906001016132b2565b5091979650505050505050565b600081518084526020808501808196508360051b8101915082860160005b85811015613321578284038952613364848351612c5f565b9885019893509084019060010161334c565b6020815260008251604060208401526133926060840182613294565b90506020840151601f198483030160408501526133af828261332e565b95945050505050565b6000806000806000606086880312156133d057600080fd5b853567ffffffffffffffff808211156133e857600080fd5b6133f489838a01612fc0565b9650602088013591508082111561340a57600080fd5b61341689838a01612fd8565b9096509450604088013591508082111561342f57600080fd5b5061343c88828901612c9e565b969995985093965092949392505050565b60008060008060006060868803121561346557600080fd5b853567ffffffffffffffff8082111561347d57600080fd5b61348989838a01612c9e565b909750955060208801359150808211156134a257600080fd5b6134ae89838a01612c9e565b909550935060408801359150808211156134c757600080fd5b506134d488828901612e88565b9150509295509295909350565b6000602082840312156134f357600080fd5b813567ffffffffffffffff81111561350a57600080fd5b6124c084828501612e32565b60008060006060848603121561352b57600080fd5b833567ffffffffffffffff8082111561354357600080fd5b61354f87838801612e32565b945060208601359350604086013591508082111561356c57600080fd5b5061357986828701612e88565b9150509250925092565b6000815160a0845261359860a0850182612c5f565b905060208301516020850152604083015160408501526001600160a01b0360608401511660608501526080830151151560808501528091505092915050565b60208152600061229a6020830184613583565b600080604083850312156135fd57600080fd5b823567ffffffffffffffff8082111561361557600080fd5b61362186838701612e32565b9350602085013591508082111561363757600080fd5b5061364485828601612e32565b9150509250929050565b60006020828403121561366057600080fd5b813561229a816130d6565b600181811c9082168061367f57607f821691505b602082108103612fd257634e487b7160e01b600052602260045260246000fd5b8035801515811461164457600080fd5b6000806000606084860312156136c457600080fd5b833567ffffffffffffffff808211156136dc57600080fd5b9085019060a082880312156136f057600080fd5b6136f8612d92565b82358281111561370757600080fd5b61371389828601612e32565b82525060208301356020820152604083013560408201526060830135613738816130d6565b60608201526137496080840161369f565b6080820152945061375c60208701612bfa565b9350604086013591508082111561377257600080fd5b5061357986828701612e32565b634e487b7160e01b600052603260045260246000fd5b600082601f8301126137a657600080fd5b81516137b4612e5182612e0a565b8181528460208386010111156137c957600080fd5b6124c0826020830160208701612c3b565b6000602082840312156137ec57600080fd5b815167ffffffffffffffff81111561380357600080fd5b6124c084828501613795565b634e487b7160e01b600052601160045260246000fd5b6000600182016138375761383761380f565b5060010190565b6060815260006138516060830186613583565b82810360208401526138638186613294565b905082810360408401526138778185612c5f565b9695505050505050565b600082601f83011261389257600080fd5b815160206138a2612e5183612de6565b82815260059290921b840181019181810190868411156138c157600080fd5b8286015b84811015612f0857805167ffffffffffffffff8111156138e55760008081fd5b6138f38986838b0101613795565b8452509183019183016138c5565b60006020828403121561391357600080fd5b815167ffffffffffffffff8082111561392b57600080fd5b908301906060828603121561393f57600080fd5b60405160608101818110838211171561395a5761395a612d53565b60405282518281111561396c57600080fd5b61397887828601613795565b8252506020830151602082015260408301518281111561399757600080fd5b6139a387828601613881565b60408301525095945050505050565b60008235607e198336030181126139c857600080fd5b9190910192915050565b60006103d636836130eb565b6060815260006139f16060830186612c5f565b8281036020840152613a038186612c5f565b9150506001600160a01b0383166040830152949350505050565b6000815160208301516001600160e01b0319808216935060048310156127f25760049290920360031b82901b161692915050565b600060208284031215613a6357600080fd5b61229a8261369f565b6000808335601e19843603018112613a8357600080fd5b83018035915067ffffffffffffffff821115613a9e57600080fd5b602001915036819003821315612ce057600080fd5b6000602080830181845280855180835260408601915060408160051b870101925083870160005b82811015613b0857603f19888603018452613af6858351612c5f565b94509285019290850190600101613ada565b5092979650505050505050565b6001600160e01b03198135818116916004851015613b3d5780818660040360031b1b83161692505b505092915050565b60008085851115613b5557600080fd5b83861115613b6257600080fd5b5050820193919092039150565b600082601f830112613b8057600080fd5b81356020613b90612e5183612de6565b82815260059290921b84018101918181019086841115613baf57600080fd5b8286015b84811015612f0857803567ffffffffffffffff811115613bd35760008081fd5b613be18986838b0101612e32565b845250918301918301613bb3565b600060208284031215613c0157600080fd5b813567ffffffffffffffff811115613c1857600080fd5b6124c084828501613b6f565b60008060408385031215613c3757600080fd5b823567ffffffffffffffff80821115613c4f57600080fd5b818501915085601f830112613c6357600080fd5b81356020613c73612e5183612de6565b82815260059290921b84018101918181019089841115613c9257600080fd5b948201945b83861015613cb757613ca88661369f565b82529482019490820190613c97565b96505086013592505080821115613ccd57600080fd5b5061364485828601613b6f565b604081526000613ced6040830185612c5f565b82810360208401526133af8185612c5f565b600082516139c8818460208701612c3b565b602081526000825160606020840152613d2d6080840182612c5f565b9050602084015160408401526040840151601f198483030160608501526133af828261332e565b600080600060608486031215613d6957600080fd5b833567ffffffffffffffff80821115613d8157600080fd5b613d8d87838801612e32565b94506020860135915080821115613da357600080fd5b50613db086828701612e32565b9250506040840135613dc1816130d6565b809150509250925092565b805161164481612be4565b600060208284031215613de957600080fd5b815167ffffffffffffffff80821115613e0157600080fd5b9083019060a08286031215613e1557600080fd5b613e1d612d92565b8251613e28816130d6565b81526020830151613e3881612be4565b6020820152604083015182811115613e4f57600080fd5b613e5b87828601613795565b604083015250613e6d60608401613dcc565b6060820152608083015182811115613e8457600080fd5b613e9087828601613795565b60808301525095945050505050565b606081526000613eb26060830186613583565b6001600160e01b03198516602084015282810360408401526138778185612c5f565b60006020808301818452808551808352604092508286019150828160051b87010184880160005b83811015613f6057603f19898403018552815160606001600160a01b03825116855288820151818a870152613f328287018261332e565b91505087820151915084810388860152613f4c8183612c5f565b968901969450505090860190600101613efb565b509098975050505050505050565b6001600160a01b038616815260a060208201526000613f9060a083018761332e565b8281036040840152613fa28187612c5f565b90506001600160e01b0319851660608401528281036080840152613fc68185612c5f565b98975050505050505050565b600060208284031215613fe457600080fd5b815161229a816130d6565b818103818111156103d6576103d661380f565b60008651614014818460208b01612c3b565b6001600160f81b03198781169184019182528651614039816001850160208b01612c3b565b908616600192909101918201528351614059816002840160208801612c3b565b01600201979650505050505050565b602081526001600160a01b038251166020820152600060208301516001600160e01b031980821660408501526040850151915060a060608501526140af60c0850183612c5f565b9150806060860151166080850152506080840151601f198483030160a08501526133af8282612c5f565b808201808211156103d6576103d661380f565b600080600080600060a0868803121561410457600080fd5b855161410f816130d6565b602087015190955067ffffffffffffffff8082111561412d57600080fd5b61413989838a01613881565b9550604088015191508082111561414f57600080fd5b61415b89838a01613795565b94506060880151915061416d82612be4565b60808801519193508082111561418257600080fd5b506134d488828901613795565b601f82111561140f57600081815260208120601f850160051c810160208610156141b65750805b601f850160051c820191505b81811015611b22578281556001016141c2565b815167ffffffffffffffff8111156141ef576141ef612d53565b614203816141fd845461366b565b8461418f565b602080601f83116001811461423857600084156142205750858301515b600019600386901b1c1916600185901b178555611b22565b600085815260208120601f198616915b8281101561426757888601518255948401946001909101908401614248565b50858210156142855787850151600019600388901b60f8161c191681555b5050505050600190811b0190555056fea2646970667358221220c9d95068334cb2a82eae43dbb14b340e941790fe2bc9aaaf86cb51253c4e323264736f6c63430008110033",
  "devdoc": {
    "errors": {
      "DNSDecodingFailed(bytes)": [
        {
          "details": "The DNS-encoded name is malformed."
        }
      ],
      "DNSEncodingFailed(string)": [
        {
          "details": "A label of the ENS name has an invalid size."
        }
      ],
      "EmptyAddress()": [
        {
          "details": "The supplied address was `0x`."
        }
      ],
      "HttpError(uint16,string)": [
        {
          "details": "Error selector: `0x01800152`"
        }
      ],
      "InvalidBatchGatewayResponse()": [
        {
          "details": "The batch gateway supplied an incorrect number of responses."
        }
      ],
      "OffchainLookup(address,string[],bytes,bytes4,bytes)": [
        {
          "details": "https://eips.ethereum.org/EIPS/eip-3668 Error selector: `0x556f1830`"
        }
      ],
      "ResolverError(bytes)": [
        {
          "details": "Error selector: `0x95c0c752`"
        }
      ],
      "ResolverNotContract(bytes,address)": [
        {
          "details": "Error selector: `0x1e9535f2`"
        }
      ],
      "ResolverNotFound(bytes)": [
        {
          "details": "Error selector: `0x77209fe8`"
        }
      ],
      "ReverseAddressMismatch(string,bytes)": [
        {
          "details": "Error selector: `0xef9c03ce`"
        }
      ],
      "UnsupportedResolverProfile(bytes4)": [
        {
          "details": "Error selector: `0x7b1c461b`"
        }
      ]
    },
    "kind": "dev",
    "methods": {
      "ccipBatch(((address,bytes,bytes,uint256)[],string[]))": {
        "details": "Use `CCIPReader.ccipRead()` to call this function with a batch.      The callback `response` will be `abi.encode(batch)`."
      },
      "ccipBatchCallback(bytes,bytes)": {
        "details": "CCIP-Read callback for `ccipBatch()`.      Updates `batch` using the batch gateway response. Reverts again if not \"done\".",
        "params": {
          "extraData": "The contextual data passed from `ccipBatch()`.",
          "response": "The response from the batch gateway."
        },
        "returns": {
          "batch": "The batch where every lookup is \"done\"."
        }
      },
      "ccipReadCallback(bytes,bytes)": {
        "details": "CCIP-Read callback for `ccipRead()`.The return type of this function is polymorphic depending on the caller.",
        "params": {
          "extraData": "The contextual data passed from `ccipRead()`.",
          "response": "The response from offchain."
        }
      },
      "findResolver(bytes)": {
        "details": "Find the resolver address for `name`.      Does not perform any validity checks.",
        "params": {
          "name": "The name to search."
        }
      },
      "owner()": {
        "details": "Returns the address of the current owner."
      },
      "renounceOwnership()": {
        "details": "Leaves the contract without owner. It will not be possible to call `onlyOwner` functions. Can only be called by the current owner. NOTE: Renouncing ownership will leave the contract without an owner, thereby disabling any functionality that is only available to the owner."
      },
      "requireResolver(bytes)": {
        "details": "Returns a valid resolver for `name` or reverts.",
        "params": {
          "name": "The name to search."
        },
        "returns": {
          "info": "The resolver information."
        }
      },
      "resolveBatchCallback(bytes,bytes)": {
        "details": "CCIP-Read callback for `_resolveBatch()`.",
        "params": {
          "extraData": "The contextual data from `_resolveBatch()`.",
          "response": "The response data from `CCIPBatcher`."
        }
      },
      "resolveCallback((bytes,uint256,bytes32,address,bool),(address,bytes,bytes,uint256)[],bytes)": {
        "details": "CCIP-Read callback for `resolveWithGateways()` (step 2 of 2).",
        "params": {
          "extraData": "The contextual data passed from `resolveWithGateways()`.",
          "info": "The resolver that was called.",
          "lookups": "The lookups corresponding to the requested call."
        },
        "returns": {
          "resolver": "The address of the resolver that supplied `result`.",
          "result": "The encoded response for the requested call."
        }
      },
      "resolveWithGateways(bytes,bytes,string[])": {
        "details": "This function executes over multiple steps (step 1 of 2).",
        "returns": {
          "_0": "result The encoded response for the requested call.",
          "_1": "resolver The address of the resolver that supplied `result`."
        }
      },
      "reverseAddressCallback((bytes,uint256,bytes32,address,bool),(address,bytes,bytes,uint256)[],bytes)": {
        "details": "CCIP-Read callback for `reverseNameCallback()` (step 3 of 3).      Reverts `ReverseAddressMismatch`.",
        "params": {
          "extraData": "The contextual data passed from `reverseNameCallback()`.",
          "info": "The resolver for the primary name that was called.",
          "lookups": "The lookups corresponding to the calls: `[addr()]`."
        },
        "returns": {
          "primary": "The resolved primary name.",
          "resolver": "The resolver address for primary name.",
          "reverseResolver": "The resolver address for the reverse name."
        }
      },
      "reverseNameCallback((bytes,uint256,bytes32,address,bool),(address,bytes,bytes,uint256)[],bytes)": {
        "details": "CCIP-Read callback for `reverseWithGateways()` (step 2 of 3).",
        "params": {
          "extraData": "The contextual data passed from `reverseWithGateways()`.",
          "infoRev": "The resolver for the reverse name that was called.",
          "lookups": "The lookups corresponding to the calls: `[name()]`."
        }
      },
      "reverseWithGateways(bytes,uint256,string[])": {
        "details": "This function executes over multiple steps (step 1 of 3).",
        "params": {
          "coinType": "The coin type.",
          "gateways": "The list of batch gateway URLs to use.",
          "lookupAddress": "The input address."
        }
      },
      "setBatchGateways(string[])": {
        "details": "Set the default batch gateways, see: `resolve()` and `reverse()`.",
        "params": {
          "gateways": "The list of batch gateway URLs to use as default."
        }
      },
      "supportsInterface(bytes4)": {
        "details": "See {IERC165-supportsInterface}."
      },
      "transferOwnership(address)": {
        "details": "Transfers ownership of the contract to a new account (`newOwner`). Can only be called by the current owner."
      }
    },
    "version": 1
  },
  "userdoc": {
    "errors": {
      "HttpError(uint16,string)": [
        {
          "notice": "An HTTP error occurred on a resolving gateway."
        }
      ],
      "ResolverError(bytes)": [
        {
          "notice": "The resolver returned an error."
        }
      ],
      "ResolverNotContract(bytes,address)": [
        {
          "notice": "The resolver is not a contract."
        }
      ],
      "ResolverNotFound(bytes)": [
        {
          "notice": "A resolver could not be found for the supplied name."
        }
      ],
      "ReverseAddressMismatch(string,bytes)": [
        {
          "notice": "The resolved address from reverse resolution does not match the supplied address."
        }
      ],
      "UnsupportedResolverProfile(bytes4)": [
        {
          "notice": "The resolver did not respond."
        }
      ]
    },
    "kind": "user",
    "methods": {
      "resolve(bytes,bytes)": {
        "notice": "Same as `resolveWithGateways()` but uses default batch gateways."
      },
      "resolveWithGateways(bytes,bytes,string[])": {
        "notice": "Performs ENS name resolution for the supplied name and resolution data.Callers should enable EIP-3668."
      },
      "reverse(bytes,uint256)": {
        "notice": "Same as `reverseWithGateways()` but uses default batch gateways."
      },
      "reverseWithGateways(bytes,uint256,string[])": {
        "notice": "Performs ENS reverse resolution for the supplied address and coin type.Callers should enable EIP-3668."
      }
    },
    "version": 1
  },
  "storageLayout": {
    "storage": [
      {
        "astId": 444,
        "contract": "contracts/universalResolver/UniversalResolver.sol:UniversalResolver",
        "label": "_owner",
        "offset": 0,
        "slot": "0",
        "type": "t_address"
      },
      {
        "astId": 21338,
        "contract": "contracts/universalResolver/UniversalResolver.sol:UniversalResolver",
        "label": "batchGateways",
        "offset": 0,
        "slot": "1",
        "type": "t_array(t_string_storage)dyn_storage"
      }
    ],
    "types": {
      "t_address": {
        "encoding": "inplace",
        "label": "address",
        "numberOfBytes": "20"
      },
      "t_array(t_string_storage)dyn_storage": {
        "base": "t_string_storage",
        "encoding": "dynamic_array",
        "label": "string[]",
        "numberOfBytes": "32"
      },
      "t_string_storage": {
        "encoding": "bytes",
        "label": "string",
        "numberOfBytes": "32"
      }
    }
  }
}