{
  "address": "0xaBd80E8a13596fEeA40Fd26fD6a24c3fe76F05fB",
  "abi": [
    {
      "inputs": [
        {
          "internalType": "contract ENS",
          "name": "ens",
          "type": "address"
        },
        {
          "internalType": "string[]",
          "name": "gateways",
          "type": "string[]"
        }
      ],
      "stateMutability": "nonpayable",
      "type": "constructor"
    },
    {
      "inputs": [
        {
          "internalType": "bytes",
          "name": "dns",
          "type": "bytes"
        }
      ],
      "name": "DNSDecodingFailed",
      "type": "error"
    },
    {
      "inputs": [
        {
          "internalType": "string",
          "name": "ens",
          "type": "string"
        }
      ],
      "name": "DNSEncodingFailed",
      "type": "error"
    },
    {
      "inputs": [],
      "name": "EmptyAddress",
      "type": "error"
    },
    {
      "inputs": [
        {
          "internalType": "uint16",
          "name": "status",
          "type": "uint16"
        },
        {
          "internalType": "string",
          "name": "message",
          "type": "string"
        }
      ],
      "name": "HttpError",
      "type": "error"
    },
    {
      "inputs": [],
      "name": "InvalidBatchGatewayResponse",
      "type": "error"
    },
    {
      "inputs": [
        {
          "internalType": "address",
          "name": "sender",
          "type": "address"
        },
        {
          "internalType": "string[]",
          "name": "urls",
          "type": "string[]"
        },
        {
          "internalType": "bytes",
          "name": "callData",
          "type": "bytes"
        },
        {
          "internalType": "bytes4",
          "name": "callbackFunction",
          "type": "bytes4"
        },
        {
          "internalType": "bytes",
          "name": "extraData",
          "type": "bytes"
        }
      ],
      "name": "OffchainLookup",
      "type": "error"
    },
    {
      "inputs": [
        {
          "internalType": "bytes",
          "name": "errorData",
          "type": "bytes"
        }
      ],
      "name": "ResolverError",
      "type": "error"
    },
    {
      "inputs": [
        {
          "internalType": "bytes",
          "name": "name",
          "type": "bytes"
        },
        {
          "internalType": "address",
          "name": "resolver",
          "type": "address"
        }
      ],
      "name": "ResolverNotContract",
      "type": "error"
    },
    {
      "inputs": [
        {
          "internalType": "bytes",
          "name": "name",
          "type": "bytes"
        }
      ],
      "name": "ResolverNotFound",
      "type": "error"
    },
    {
      "inputs": [
        {
          "internalType": "string",
          "name": "primary",
          "type": "string"
        },
        {
          "internalType": "bytes",
          "name": "primaryAddress",
          "type": "bytes"
        }
      ],
      "name": "ReverseAddressMismatch",
      "type": "error"
    },
    {
      "inputs": [
        {
          "internalType": "bytes4",
          "name": "selector",
          "type": "bytes4"
        }
      ],
      "name": "UnsupportedResolverProfile",
      "type": "error"
    },
    {
      "anonymous": false,
      "inputs": [
        {
          "indexed": true,
          "internalType": "address",
          "name": "previousOwner",
          "type": "address"
        },
        {
          "indexed": true,
          "internalType": "address",
          "name": "newOwner",
          "type": "address"
        }
      ],
      "name": "OwnershipTransferred",
      "type": "event"
    },
    {
      "inputs": [
        {
          "internalType": "uint256",
          "name": "",
          "type": "uint256"
        }
      ],
      "name": "batchGateways",
      "outputs": [
        {
          "internalType": "string",
          "name": "",
          "type": "string"
        }
      ],
      "stateMutability": "view",
      "type": "function"
    },
    {
      "inputs": [
        {
          "components": [
            {
              "components": [
                {
                  "internalType": "address",
                  "name": "target",
                  "type": "address"
                },
                {
                  "internalType": "bytes",
                  "name": "call",
                  "type": "bytes"
                },
                {
                  "internalType": "bytes",
                  "name": "data",
                  "type": "bytes"
                },
                {
                  "internalType": "uint256",
                  "name": "flags",
                  "type": "uint256"
                }
              ],
              "internalType": "struct CCIPBatcher.Lookup[]",
              "name": "lookups",
              "type": "tuple[]"
            },
            {
              "internalType": "string[]",
              "name": "gateways",
              "type": "string[]"
            }
          ],
          "internalType": "struct CCIPBatcher.Batch",
          "name": "batch",
          "type": "tuple"
        }
      ],
      "name": "ccipBatch",
      "outputs": [
        {
          "components": [
            {
              "components": [
                {
                  "internalType": "address",
                  "name": "target",
                  "type": "address"
                },
                {
                  "internalType": "bytes",
                  "name": "call",
                  "type": "bytes"
                },
                {
                  "internalType": "bytes",
                  "name": "data",
                  "type": "bytes"
                },
                {
                  "internalType": "uint256",
                  "name": "flags",
                  "type": "uint256"
                }
              ],
              "internalType": "struct CCIPBatcher.Lookup[]",
              "name": "lookups",
              "type": "tuple[]"
            },
            {
              "internalType": "string[]",
              "name": "gateways",
              "type": "string[]"
            }
          ],
          "internalType": "struct CCIPBatcher.Batch",
          "name": "",
          "type": "tuple"
        }
      ],
      "stateMutability": "view",
      "type": "function"
    },
    {
      "inputs": [
        {
          "internalType": "bytes",
          "name": "response",
          "type": "bytes"
        },
        {
          "internalType": "bytes",
          "name": "extraData",
          "type": "bytes"
        }
      ],
      "name": "ccipBatchCallback",
      "outputs": [
        {
          "components": [
            {
              "components": [
                {
                  "internalType": "address",
                  "name": "target",
                  "type": "address"
                },
                {
                  "internalType": "bytes",
                  "name": "call",
                  "type": "bytes"
                },
                {
                  "internalType": "bytes",
                  "name": "data",
                  "type": "bytes"
                },
                {
                  "internalType": "uint256",
                  "name": "flags",
                  "type": "uint256"
                }
              ],
              "internalType": "struct CCIPBatcher.Lookup[]",
              "name": "lookups",
              "type": "tuple[]"
            },
            {
              "internalType": "string[]",
              "name": "gateways",
              "type": "string[]"
            }
          ],
          "internalType": "struct CCIPBatcher.Batch",
          "name": "batch",
          "type": "tuple"
        }
      ],
      "stateMutability": "view",
      "type": "function"
    },
    {
      "inputs": [
        {
          "internalType": "bytes",
          "name": "response",
          "type": "bytes"
        },
        {
          "internalType": "bytes",
          "name": "extraData",
          "type": "bytes"
        }
      ],
      "name": "ccipReadCallback",
      "outputs": [],
      "stateMutability": "view",
      "type": "function"
    },
    {
      "inputs": [
        {
          "internalType": "bytes",
          "name": "name",
          "type": "bytes"
        }
      ],
      "name": "findResolver",
      "outputs": [
        {
          "internalType": "address",
          "name": "",
          "type": "address"
        },
        {
          "internalType": "bytes32",
          "name": "",
          "type": "bytes32"
        },
        {
          "internalType": "uint256",
          "name": "",
          "type": "uint256"
        }
      ],
      "stateMutability": "view",
      "type": "function"
    },
    {
      "inputs": [],
      "name": "owner",
      "outputs": [
        {
          "internalType": "address",
          "name": "",
          "type": "address"
        }
      ],
      "stateMutability": "view",
      "type": "function"
    },
    {
      "inputs": [],
      "name": "registry",
      "outputs": [
        {
          "internalType": "contract ENS",
          "name": "",
          "type": "address"
        }
      ],
      "stateMutability": "view",
      "type": "function"
    },
    {
      "inputs": [],
      "name": "renounceOwnership",
      "outputs": [],
      "stateMutability": "nonpayable",
      "type": "function"
    },
    {
      "inputs": [
        {
          "internalType": "bytes",
          "name": "name",
          "type": "bytes"
        }
      ],
      "name": "requireResolver",
      "outputs": [
        {
          "components": [
            {
              "internalType": "bytes",
              "name": "name",
              "type": "bytes"
            },
            {
              "internalType": "uint256",
              "name": "offset",
              "type": "uint256"
            },
            {
              "internalType": "bytes32",
              "name": "node",
              "type": "bytes32"
            },
            {
              "internalType": "address",
              "name": "resolver",
              "type": "address"
            },
            {
              "internalType": "bool",
              "name": "extended",
              "type": "bool"
            }
          ],
          "internalType": "struct AbstractUniversalResolver.ResolverInfo",
          "name": "info",
          "type": "tuple"
        }
      ],
      "stateMutability": "view",
      "type": "function"
    },
    {
      "inputs": [
        {
          "internalType": "bytes",
          "name": "name",
          "type": "bytes"
        },
        {
          "internalType": "bytes",
          "name": "data",
          "type": "bytes"
        }
      ],
      "name": "resolve",
      "outputs": [
        {
          "internalType": "bytes",
          "name": "",
          "type": "bytes"
        },
        {
          "internalType": "address",
          "name": "",
          "type": "address"
        }
      ],
      "stateMutability": "view",
      "type": "function"
    },
    {
      "inputs": [
        {
          "internalType": "bytes",
          "name": "response",
          "type": "bytes"
        },
        {
          "internalType": "bytes",
          "name": "extraData",
          "type": "bytes"
        }
      ],
      "name": "resolveBatchCallback",
      "outputs": [],
      "stateMutability": "view",
      "type": "function"
    },
    {
      "inputs": [
        {
          "components": [
            {
              "internalType": "bytes",
              "name": "name",
              "type": "bytes"
            },
            {
              "internalType": "uint256",
              "name": "offset",
              "type": "uint256"
            },
            {
              "internalType": "bytes32",
              "name": "node",
              "type": "bytes32"
            },
            {
              "internalType": "address",
              "name": "resolver",
              "type": "address"
            },
            {
              "internalType": "bool",
              "name": "extended",
              "type": "bool"
            }
          ],
          "internalType": "struct AbstractUniversalResolver.ResolverInfo",
          "name": "info",
          "type": "tuple"
        },
        {
          "components": [
            {
              "internalType": "address",
              "name": "target",
              "type": "address"
            },
            {
              "internalType": "bytes",
              "name": "call",
              "type": "bytes"
            },
            {
              "internalType": "bytes",
              "name": "data",
              "type": "bytes"
            },
            {
              "internalType": "uint256",
              "name": "flags",
              "type": "uint256"
            }
          ],
          "internalType": "struct CCIPBatcher.Lookup[]",
          "name": "lookups",
          "type": "tuple[]"
        },
        {
          "internalType": "bytes",
          "name": "extraData",
          "type": "bytes"
        }
      ],
      "name": "resolveCallback",
      "outputs": [
        {
          "internalType": "bytes",
          "name": "result",
          "type": "bytes"
        },
        {
          "internalType": "address",
          "name": "resolver",
          "type": "address"
        }
      ],
      "stateMutability": "pure",
      "type": "function"
    },
    {
      "inputs": [
        {
          "internalType": "bytes",
          "name": "name",
          "type": "bytes"
        },
        {
          "internalType": "bytes",
          "name": "data",
          "type": "bytes"
        },
        {
          "internalType": "string[]",
          "name": "gateways",
          "type": "string[]"
        }
      ],
      "name": "resolveWithGateways",
      "outputs": [
        {
          "internalType": "bytes",
          "name": "",
          "type": "bytes"
        },
        {
          "internalType": "address",
          "name": "",
          "type": "address"
        }
      ],
      "stateMutability": "view",
      "type": "function"
    },
    {
      "inputs": [
        {
          "internalType": "bytes",
          "name": "lookupAddress",
          "type": "bytes"
        },
        {
          "internalType": "uint256",
          "name": "coinType",
          "type": "uint256"
        }
      ],
      "name": "reverse",
      "outputs": [
        {
          "internalType": "string",
          "name": "",
          "type": "string"
        },
        {
          "internalType": "address",
          "name": "",
          "type": "address"
        },
        {
          "internalType": "address",
          "name": "",
          "type": "address"
        }
      ],
      "stateMutability": "view",
      "type": "function"
    },
    {
      "inputs": [
        {
          "components": [
            {
              "internalType": "bytes",
              "name": "name",
              "type": "bytes"
            },
            {
              "internalType": "uint256",
              "name": "offset",
              "type": "uint256"
            },
            {
              "internalType": "bytes32",
              "name": "node",
              "type": "bytes32"
            },
            {
              "internalType": "address",
              "name": "resolver",
              "type": "address"
            },
            {
              "internalType": "bool",
              "name": "extended",
              "type": "bool"
            }
          ],
          "internalType": "struct AbstractUniversalResolver.ResolverInfo",
          "name": "info",
          "type": "tuple"
        },
        {
          "components": [
            {
              "internalType": "address",
              "name": "target",
              "type": "address"
            },
            {
              "internalType": "bytes",
              "name": "call",
              "type": "bytes"
            },
            {
              "internalType": "bytes",
              "name": "data",
              "type": "bytes"
            },
            {
              "internalType": "uint256",
              "name": "flags",
              "type": "uint256"
            }
          ],
          "internalType": "struct CCIPBatcher.Lookup[]",
          "name": "lookups",
          "type": "tuple[]"
        },
        {
          "internalType": "bytes",
          "name": "extraData",
          "type": "bytes"
        }
      ],
      "name": "reverseAddressCallback",
      "outputs": [
        {
          "internalType": "string",
          "name": "primary",
          "type": "string"
        },
        {
          "internalType": "address",
          "name": "resolver",
          "type": "address"
        },
        {
          "internalType": "address",
          "name": "reverseResolver",
          "type": "address"
        }
      ],
      "stateMutability": "pure",
      "type": "function"
    },
    {
      "inputs": [
        {
          "components": [
            {
              "internalType": "bytes",
              "name": "name",
              "type": "bytes"
            },
            {
              "internalType": "uint256",
              "name": "offset",
              "type": "uint256"
            },
            {
              "internalType": "bytes32",
              "name": "node",
              "type": "bytes32"
            },
            {
              "internalType": "address",
              "name": "resolver",
              "type": "address"
            },
            {
              "internalType": "bool",
              "name": "extended",
              "type": "bool"
            }
          ],
          "internalType": "struct AbstractUniversalResolver.ResolverInfo",
          "name": "infoRev",
          "type": "tuple"
        },
        {
          "components": [
            {
              "internalType": "address",
              "name": "target",
              "type": "address"
            },
            {
              "internalType": "bytes",
              "name": "call",
              "type": "bytes"
            },
            {
              "internalType": "bytes",
              "name": "data",
              "type": "bytes"
            },
            {
              "internalType": "uint256",
              "name": "flags",
              "type": "uint256"
            }
          ],
          "internalType": "struct CCIPBatcher.Lookup[]",
          "name": "lookups",
          "type": "tuple[]"
        },
        {
          "internalType": "bytes",
          "name": "extraData",
          "type": "bytes"
        }
      ],
      "name": "reverseNameCallback",
      "outputs": [
        {
          "internalType": "string",
          "name": "primary",
          "type": "string"
        },
        {
          "internalType": "address",
          "name": "",
          "type": "address"
        },
        {
          "internalType": "address",
          "name": "",
          "type": "address"
        }
      ],
      "stateMutability": "view",
      "type": "function"
    },
    {
      "inputs": [
        {
          "internalType": "bytes",
          "name": "lookupAddress",
          "type": "bytes"
        },
        {
          "internalType": "uint256",
          "name": "coinType",
          "type": "uint256"
        },
        {
          "internalType": "string[]",
          "name": "gateways",
          "type": "string[]"
        }
      ],
      "name": "reverseWithGateways",
      "outputs": [
        {
          "internalType": "string",
          "name": "",
          "type": "string"
        },
        {
          "internalType": "address",
          "name": "",
          "type": "address"
        },
        {
          "internalType": "address",
          "name": "",
          "type": "address"
        }
      ],
      "stateMutability": "view",
      "type": "function"
    },
    {
      "inputs": [
        {
          "internalType": "string[]",
          "name": "gateways",
          "type": "string[]"
        }
      ],
      "name": "setBatchGateways",
      "outputs": [],
      "stateMutability": "nonpayable",
      "type": "function"
    },
    {
      "inputs": [
        {
          "internalType": "bytes4",
          "name": "interfaceId",
          "type": "bytes4"
        }
      ],
      "name": "supportsInterface",
      "outputs": [
        {
          "internalType": "bool",
          "name": "",
          "type": "bool"
        }
      ],
      "stateMutability": "view",
      "type": "function"
    },
    {
      "inputs": [
        {
          "internalType": "address",
          "name": "newOwner",
          "type": "address"
        }
      ],
      "name": "transferOwnership",
      "outputs": [],
      "stateMutability": "nonpayable",
      "type": "function"
    }
  ],
  "transactionHash": "0x7ce205af5cf3a1094b1cf9ad9256002a0c7eab1d7176451f09c0c9a122c24d14",
  "args": [
    "0x00000000000C2E074eC69A0dFb2997BA6C7d2e1e",
    [
      "https://ccip-v3.ens.xyz",
      "x-batch-gateway:true"
    ]
  ],
  "numDeployments": 12,
  "solcInputHash": "a1b7977459171c89262cb6572494a2ba",
  "bytecode": "0x60a06040523480156200001157600080fd5b50604051620045b6380380620045b68339810160408190526200003491620001da565b8062000040336200006a565b805162000055906001906020840190620000ba565b5050506001600160a01b03166080526200049c565b600080546001600160a01b038381166001600160a01b0319831681178455604051919092169283917f8be0079c531659141344cd1fd0a4f28419497f9722a3daafe3b4186f6b6457e09190a35050565b82805482825590600052602060002090810192821562000105579160200282015b82811115620001055782518290620000f49082620003d0565b5091602001919060010190620000db565b506200011392915062000117565b5090565b80821115620001135760006200012e828262000138565b5060010162000117565b508054620001469062000341565b6000825580601f1062000157575050565b601f0160209004906000526020600020908101906200017791906200017a565b50565b5b808211156200011357600081556001016200017b565b634e487b7160e01b600052604160045260246000fd5b604051601f8201601f191681016001600160401b0381118282101715620001d257620001d262000191565b604052919050565b6000806040808486031215620001ef57600080fd5b83516001600160a01b03811681146200020757600080fd5b602085810151919450906001600160401b03808211156200022757600080fd5b8187019150601f88818401126200023d57600080fd5b82518281111562000252576200025262000191565b8060051b62000263868201620001a7565b918252848101860191868101908c8411156200027e57600080fd5b87870192505b838310156200032e578251868111156200029e5760008081fd5b8701603f81018e13620002b15760008081fd5b8881015187811115620002c857620002c862000191565b620002db818801601f19168b01620001a7565b8181528f8c838501011115620002f15760008081fd5b60005b8281101562000311578381018d01518282018d01528b01620002f4565b5060009181018b0191909152835250918701919087019062000284565b8099505050505050505050509250929050565b600181811c908216806200035657607f821691505b6020821081036200037757634e487b7160e01b600052602260045260246000fd5b50919050565b601f821115620003cb57600081815260208120601f850160051c81016020861015620003a65750805b601f850160051c820191505b81811015620003c757828155600101620003b2565b5050505b505050565b81516001600160401b03811115620003ec57620003ec62000191565b6200040481620003fd845462000341565b846200037d565b602080601f8311600181146200043c5760008415620004235750858301515b600019600386901b1c1916600185901b178555620003c7565b600085815260208120601f198616915b828110156200046d578886015182559484019460019091019084016200044c565b50858210156200048c5787850151600019600388901b60f8161c191681555b5050505050600190811b01905550565b6080516140f7620004bf600039600081816102100152611e1e01526140f76000f3fe608060405234801561001057600080fd5b506004361061016c5760003560e01c80639f28e99d116100cd578063b7d6ca6411610081578063d0d444a911610066578063d0d444a914610353578063ef46c0b814610366578063f2fde38b1461037957600080fd5b8063b7d6ca6414610320578063c285238a1461033357600080fd5b8063a1472844116100b2578063a1472844146102c2578063a1cbcbaf146102d5578063b536af761461030d57600080fd5b80639f28e99d1461028f578063a072a4fb146102af57600080fd5b8063715018a6116101245780638708f498116101095780638708f4981461024a5780638da5cb5b1461025d5780639061b9231461026e57600080fd5b8063715018a6146102035780637b1039991461020b57600080fd5b8063491fc4f911610155578063491fc4f9146101b95780635c016c16146101ce5780635d78a217146101e157600080fd5b806301ffc9a714610171578063039128c014610199575b600080fd5b61018461017f366004612a29565b61038c565b60405190151581526020015b60405180910390f35b6101ac6101a7366004612a46565b6103dc565b6040516101909190612aaf565b6101cc6101c7366004612b0b565b610488565b005b6101cc6101dc366004612d37565b6105a1565b6101f46101ef366004612d6c565b6105c0565b60405161019093929190612db1565b6101cc6106af565b6102327f000000000000000000000000000000000000000000000000000000000000000081565b6040516001600160a01b039091168152602001610190565b6101f4610258366004612e41565b6106c3565b6000546001600160a01b0316610232565b61028161027c366004612b0b565b6108ab565b604051610190929190612ecf565b6102a261029d366004612fb8565b61099a565b604051610190919061319a565b6102816102bd3660046131dc565b610ba1565b6102816102d0366004613271565b610d4e565b6102e86102e3366004613305565b610e71565b604080516001600160a01b039094168452602084019290925290820152606001610190565b6102a261031b366004612b0b565b610e8e565b6101f461032e36600461333a565b61111d565b610346610341366004613305565b6111df565b60405161019091906133fb565b6101f46103613660046131dc565b6112f5565b6101cc61037436600461340e565b611494565b6101cc610387366004613472565b611516565b60007f6cd2d09b000000000000000000000000000000000000000000000000000000006001600160e01b0319831614806103d657506301ffc9a760e01b6001600160e01b03198316145b92915050565b600181815481106103ec57600080fd5b9060005260206000200160009150905080546104079061348f565b80601f01602080910402602001604051908101604052809291908181526020018280546104339061348f565b80156104805780601f1061045557610100808354040283529160200191610480565b820191906000526020600020905b81548152906001019060200180831161046357829003601f168201915b505050505081565b600061049684860186612fb8565b9050600080806104a8858701876134d3565b9250925092508260800151156105425760005b845151811015610540576000856000015182815181106104dd576104dd6135a3565b602002602001015190506104fb816020015160448101510160240190565b60208201526060810151600e1660000361052d5780604001518060200190518101906105279190613606565b60408201525b508061053881613651565b9150506104bb565b505b6105973083858760000151856040516024016105609392919061366a565b60408051601f198184030181529190526020810180516001600160e01b03166001600160e01b0319909316929092179091526115a6565b5050505050505050565b6105a96115c5565b80516105bc906001906020840190612953565b5050565b60606000806106a185856001805480602002602001604051908101604052809291908181526020016000905b8282101561069857838290600052602060002001805461060b9061348f565b80601f01602080910402602001604051908101604052809291908181526020018280546106379061348f565b80156106845780601f1061065957610100808354040283529160200191610684565b820191906000526020600020905b81548152906001019060200180831161066757829003601f168201915b5050505050815260200190600101906105ec565b5050505061111d565b9250925092505b9250925092565b6106b76115c5565b6106c1600061161f565b565b60606000806000848060200190518101906106de919061372d565b9050610716878760008181106106f6576106f66135a3565b905060200281019061070891906137de565b610711906137fe565b611687565b8060200190518101906107299190613606565b9350835160000361076457600061074660808a0160608b01613472565b604051806020016040528060008152509190935093509350506108a1565b60006107726103418661174b565b905061089e81610852603c8560200151146107f357836040015185602001516040516024016107ab929190918252602082015260400190565b60408051601f198184030181529190526020810180516001600160e01b03167ff1cb7e060000000000000000000000000000000000000000000000000000000017905261188d565b836040015160405160240161080a91815260200190565b60408051601f198184030181529190526020810180516001600160e01b03167f3b3b57de0000000000000000000000000000000000000000000000000000000017905261188d565b846040015163d0d444a960e01b86600001518a8f60600160208101906108789190613472565b60405160200161088a9392919061380a565b6040516020818303038152906040526118df565b50505b9450945094915050565b6060600061098d868686866001805480602002602001604051908101604052809291908181526020016000905b828210156109845783829060005260206000200180546108f79061348f565b80601f01602080910402602001604051908101604052809291908181526020018280546109239061348f565b80156109705780601f1061094557610100808354040283529160200191610970565b820191906000526020600020905b81548152906001019060200180831161095357829003601f168201915b5050505050815260200190600101906108d8565b50505050610d4e565b9150915094509492505050565b604080518082019091526060808252602082015260005b825151811015610b93576000836000015182815181106109d3576109d36135a3565b602002602001015190506020601017816060015116600003610a9b5760006109fe8260000151611ade565b610a09576010610a0c565b60205b9050825b855151811015610a985782600001516001600160a01b031686600001518281518110610a3e57610a3e6135a3565b6020026020010151600001516001600160a01b031603610a86578186600001518281518110610a6f57610a6f6135a3565b602002602001015160600181815117915081815250505b80610a9081613651565b915050610a10565b50505b600060208260600151166000149050600080610ac1831585600001518660200151611b13565b915091508180610ad85750828015610ad857508051155b15610b395760608401805160401790528051600003610b34578360200151610aff90613849565b6040516001600160e01b0319909116602082015260240160408051601f19818403018152919052606085018051600817905290505b610b75565b630556f18360e41b610b4a82613849565b6001600160e01b03191603610b69576060840180516001179052610b75565b60608401805160421790525b60409093019290925250819050610b8b81613651565b9150506109b1565b50610b9d82611b8c565b5090565b6060600080610bb28486018661387d565b90508015610d185760008667ffffffffffffffff811115610bd557610bd5612b77565b604051908082528060200260200182016040528015610c0857816020015b6060815260200190600190039081610bf35790505b50905060005b87811015610cef576000898983818110610c2a57610c2a6135a3565b9050602002810190610c3c91906137de565b610c45906137fe565b90506008816060015116600003610cdc57898983818110610c6857610c686135a3565b9050602002810190610c7a91906137de565b610c88906040810190613898565b8080601f0160208091040260200160405190810160405280939291908181526020018383808284376000920191909152505085518692508591508110610cd057610cd06135a3565b60200260200101819052505b5080610ce781613651565b915050610c0e565b5080604051602001610d0191906138df565b604051602081830303815290604052935050610d31565b610d2e878760008181106106f6576106f66135a3565b92505b610d416080890160608a01613472565b9150509550959350505050565b60606000807fac9650d800000000000000000000000000000000000000000000000000000000610d7e8688613941565b6001600160e01b031916149050610e66610dcd89898080601f0160208091040260200160405190810160405280939291908181526020018383808284376000920191909152506111df92505050565b82610e1657610e1188888080601f01602080910402602001604051908101604052809392919081815260200183838082843760009201919091525061188d92505050565b610e30565b610e23876004818b613971565b810190610e309190613a1b565b60408051851515602082015288917fa072a4fb00000000000000000000000000000000000000000000000000000000910161088a565b509550959350505050565b6000806000610e81846000611d89565b9250925092509193909250565b6040805180820190915260608082526020820152600080610eb186880188613a50565b915091508051825114610ed75760405163252e18f560e11b815260040160405180910390fd5b610ee384860186612fb8565b92506000805b8451518110156110e757600085600001518281518110610f0b57610f0b6135a3565b6020026020010151905060408160600151166000036110d45783518310156110c8576000848481518110610f4157610f416135a3565b60200260200101519050858481518110610f5d57610f5d6135a3565b602002602001015115610f7a5760608201805160441790526110c2565b6000610f898360400151611ec6565b9050600081600001516001600160a01b03168260600151848460800151604051602401610fb7929190613b06565b60408051601f198184030181529181526020820180516001600160e01b03166001600160e01b0319909416939093179092529051610ff59190613b2b565b600060405180830381855afa9150503d8060008114611030576040519150601f19603f3d011682016040523d82523d6000602084013e611035565b606091505b50935090508015611093576060840180516040179052825160000361108e5760608201516040516001600160e01b0319909116602082015260240160408051601f19818403018152919052606085018051600817905292505b6110bf565b630556f18360e41b6110a484613849565b6001600160e01b031916146110bf5760608401805160421790525b50505b60408201525b6110d183613651565b92505b50806110df81613651565b915050610ee9565b50815181146111095760405163252e18f560e11b815260040160405180910390fd5b61111284611b8c565b505050949350505050565b606060008060006111396103416111348989611f10565b61174b565b90506111d5816111a1836040015160405160240161115991815260200190565b60408051601f198184030181529190526020810180516001600160e01b03167f691f34310000000000000000000000000000000000000000000000000000000017905261188d565b87638708f49860e01b60405180606001604052808d81526020018c81526020018b81525060405160200161088a9190613b3d565b5093509350939050565b6040805160a08101825260608082526000602083018190529282018390528101829052608081019190915261121382610e71565b602084015260408301526001600160a01b0316606082018190526112555781604051630ee413fd60e31b815260040161124c9190612aaf565b60405180910390fd5b61126a8160600151639061b92360e01b612056565b1561127b57600160808201526112ef565b6020810151156112a05781604051630ee413fd60e31b815260040161124c9190612aaf565b80606001516001600160a01b03163b6000036112ef5760608101516040517f1e9535f200000000000000000000000000000000000000000000000000000000815261124c918491600401612ecf565b90815290565b60606000808261130785870187613b80565b909550925090506000611323898983816106f6576106f66135a3565b9050606060008a8a600081811061133c5761133c6135a3565b905060200281019061134e91906137de565b61135c906020810190613898565b61136591613941565b90507fc4c4a822000000000000000000000000000000000000000000000000000000006001600160e01b03198216016113e7576000838060200190518101906113ae9190613bf8565b6040516bffffffffffffffffffffffff19606083901b16602082015290915060340160405160208183030381529060405292505061142f565b7f0e3481fa000000000000000000000000000000000000000000000000000000006001600160e01b031982160161142f578280602001905181019061142c9190613606565b91505b61143984836120df565b6114735786826040517fef9c03ce00000000000000000000000000000000000000000000000000000000815260040161124c929190613b06565b61148360808d0160608e01613472565b955050505050955095509592505050565b6000818060200190518101906114aa9190613c20565b9050611511816000015182602001518584604001516040516024016114d0929190613b06565b60408051601f198184030181529190526020810180516001600160e01b03166001600160e01b03199093169290921790915260608401516080850151612104565b505050565b61151e6115c5565b6001600160a01b03811661159a5760405162461bcd60e51b815260206004820152602660248201527f4f776e61626c653a206e6577206f776e657220697320746865207a65726f206160448201527f6464726573730000000000000000000000000000000000000000000000000000606482015260840161124c565b6115a38161161f565b50565b6105bc8282600060e01b60405180602001604052806000815250612104565b6000546001600160a01b031633146106c15760405162461bcd60e51b815260206004820181905260248201527f4f776e61626c653a2063616c6c6572206973206e6f7420746865206f776e6572604482015260640161124c565b600080546001600160a01b038381167fffffffffffffffffffffffff0000000000000000000000000000000000000000831681178455604051919092169283917f8be0079c531659141344cd1fd0a4f28419497f9722a3daafe3b4186f6b6457e09190a35050565b60408101516060820151600416156116a157805160208201fd5b60608201516002161561170a57637b1c461b60e01b6116bf82613849565b6001600160e01b031916036116d657805160208201fd5b806040517f95c0c75200000000000000000000000000000000000000000000000000000000815260040161124c9190612aaf565b6060820151600816156117465761172081613849565b604051637b1c461b60e01b81526001600160e01b0319909116600482015260240161124c565b919050565b80516060906000819003611775575050604080518082019091526001815260006020820152919050565b8060020167ffffffffffffffff81111561179157611791612b77565b6040519080825280601f01601f1916602001820160405280156117bb576020820181803683370190505b509150602082018060005b838110156118495760008682815181106117e2576117e26135a3565b01602001516001600160f81b0319169050601760f91b8190036118365761180984846122b8565b93508360000361182e5786604051639a4c3e3b60e01b815260040161124c9190612aaf565b839250611840565b6001830192508083525b506001016117c6565b5061185482826122b8565b9150816000036118795784604051639a4c3e3b60e01b815260040161124c9190612aaf565b60008253601f840182038452505050919050565b604080516001808252818301909252606091816020015b60608152602001906001900390816118a457905050905081816000815181106118cf576118cf6135a3565b6020026020010181905250919050565b60006040518060400160405280865167ffffffffffffffff81111561190657611906612b77565b60405190808252806020026020018201604052801561196b57816020015b611958604051806080016040528060006001600160a01b031681526020016060815260200160608152602001600081525090565b8152602001906001900390816119245790505b508152602001859052905060005b8551811015611a535760008260000151828151811061199a5761199a6135a3565b602090810291909101015160608901516001600160a01b0316815260808901519091506119e0578682815181106119d3576119d36135a3565b6020026020010151611a3b565b87600001518783815181106119f7576119f76135a3565b6020026020010151604051602401611a10929190613b06565b60408051601f198184030181529190526020810180516001600160e01b0316639061b92360e01b1790525b60209091015280611a4b81613651565b915050611979565b50611ad630306001600160a01b0316639f28e99d84604051602401611a78919061319a565b604051602081830303815290604052915060e01b6020820180516001600160e01b03838183161783525050505063491fc4f960e01b898787604051602001611ac293929190613ce8565b604051602081830303815290604052612104565b505050505050565b6000306001600160a01b03831603611af857506001919050565b6113885a6000806000808786fa50815a909103109392505050565b60006060836001600160a01b031685611b2e5761c350611b30565b5a5b84604051611b3e9190613b2b565b6000604051808303818686fa925050503d8060008114611b7a576040519150601f19603f3d011682016040523d82523d6000602084013e611b7f565b606091505b5090969095509350505050565b80515160009067ffffffffffffffff811115611baa57611baa612b77565b604051908082528060200260200182016040528015611c0857816020015b611bf5604051806060016040528060006001600160a01b0316815260200160608152602001606081525090565b815260200190600190039081611bc85790505b5090506000805b835151811015611cc957600084600001518281518110611c3157611c316135a3565b602002602001015190506040816060015116600003611cb6576000611c598260400151611ec6565b9050604051806060016040528082600001516001600160a01b03168152602001826020015181526020018260400151815250858580611c9790613651565b965081518110611ca957611ca96135a3565b6020026020010181905250505b5080611cc181613651565b915050611c0f565b5080156115115780825230836020015183604051602401611cea9190613d1d565b60408051601f19818403018152918152602080830180516001600160e01b03167fa780bab60000000000000000000000000000000000000000000000000000000017905290517fb536af760000000000000000000000000000000000000000000000000000000091611d5e9189910161319a565b60408051601f1981840301815290829052630556f18360e41b825261124c9594939291600401613db7565b6000806000806000611d9b878761232d565b90925090508115611ebd576000806000611db58a85611d89565b9250925092508185604051602001611dd7929190918252602082015260400190565b60408051808303601f190181529082905280516020909101207f0178b8bf0000000000000000000000000000000000000000000000000000000082526004820181905297507f00000000000000000000000000000000000000000000000000000000000000006001600160a01b031690630178b8bf90602401602060405180830381865afa158015611e6d573d6000803e3d6000fd5b505050506040513d601f19601f82011682018060405250810190611e919190613bf8565b97506001600160a01b038816611ea957828782611ead565b87878a5b97509750975050505050506106a8565b50509250925092565b6040805160a08101825260008082526060602083018190529282018390528282015260808101919091526103d6611f0b836004808651611f069190613e1b565b6124c7565b612549565b60608251600003611f4d576040517f7138356f00000000000000000000000000000000000000000000000000000000815260040160405180910390fd5b611f56836125b5565b601760f91b603c8414611fb95763800000008414611f7e57611f7984600161261e565b611ff0565b6040518060400160405280600781526020017f64656661756c7400000000000000000000000000000000000000000000000000815250611ff0565b6040518060400160405280600481526020017f61646472000000000000000000000000000000000000000000000000000000008152505b601760f91b6040518060400160405280600781526020017f726576657273650000000000000000000000000000000000000000000000000081525060405160200161203f959493929190613e2e565b604051602081830303815290604052905092915050565b604080516001600160e01b03198316602480830191909152825180830390910181526044909101909152602080820180516001600160e01b03166301ffc9a760e01b178152825160009392849283928392918391908a617530fa92503d915060005190508280156120c8575060208210155b80156120d45750600081115b979650505050505050565b6000815183511480156120fd57506120fd83600084600087516126f5565b9392505050565b60008061211a61211387611ade565b8787611b13565b91509150811580156121445750630556f18360e41b61213882613849565b6001600160e01b031916145b156121e457600061215482611ec6565b9050866001600160a01b031681600001516001600160a01b0316036121e257308160200151826040015163ef46c0b860e01b6040518060a001604052808c6001600160a01b0316815260200186606001516001600160e01b0319168152602001866080015181526020018a6001600160e01b031916815260200189815250604051602001611d5e9190613e94565b505b8180156121fa57506001600160e01b0319841615155b156122a257306001600160a01b031684828560405160240161221d929190613b06565b60408051601f198184030181529181526020820180516001600160e01b03166001600160e01b031990941693909317909252905161225b9190613b2b565b600060405180830381855afa9150503d8060008114612296576040519150601f19603f3d011682016040523d82523d6000602084013e61229b565b606091505b5090925090505b81156122b057805160208201f35b805160208201fd5b6000806122c58484613e1b565b905060ff811115612304578060018501206000526122f260008560026122eb9190613f05565b6040612718565b605b6001850153605d60428501535060425b80156123265780845380612319856001613f05565b6123239190613f05565b91505b5092915050565b60008083518310612353578360405163ba4adc2360e01b815260040161124c9190612aaf565b6000848461236081613651565b955081518110612372576123726135a3565b016020015160f81c90506123868185613f05565b915084518211156123ac578460405163ba4adc2360e01b815260040161124c9190612aaf565b8060421480156123fc57508484815181106123c9576123c96135a3565b6020910101516001600160f81b0319167f5b00000000000000000000000000000000000000000000000000000000000000145b801561245257508461240f600184613e1b565b8151811061241f5761241f6135a3565b6020910101516001600160f81b0319167f5d00000000000000000000000000000000000000000000000000000000000000145b156124ae57600061247886612468876001613f05565b612473600187613e1b565b612782565b9094509050801580612488575083155b156124a8578560405163ba4adc2360e01b815260040161124c9190612aaf565b506124bf565b80156124bf57806020858701012092505b509250929050565b82516060906124d68385613f05565b11156124e157600080fd5b60008267ffffffffffffffff8111156124fc576124fc612b77565b6040519080825280601f01601f191660200182016040528015612526576020820181803683370190505b5090506020808201908686010161253e8282876127e7565b509095945050505050565b6040805160a0810182526000808252606060208301819052928201839052828201526080810191909152818060200190518101906125879190613f18565b60808601526001600160e01b0319166060850152604084015260208301526001600160a01b03168152919050565b805160609060011b8067ffffffffffffffff8111156125d6576125d6612b77565b6040519080825280601f01601f191660200182016040528015612600576020820181803683370190505b5091506020838101908301612616828285612718565b505050919050565b606082600060805b60088110612657576001811b83101561264a576126438183613f05565b915061264f565b91821c915b60011c612626565b508380156126655750601082105b1561267857612675600482613f05565b90505b6000612689600283901c6040613e1b565b90508067ffffffffffffffff8111156126a4576126a4612b77565b6040519080825280601f01601f1916602001820160405280156126ce576020820181803683370190505b509350600086831b6000526020850190506126eb60008284612718565b5050505092915050565b600061270284848461283d565b61270d87878561283d565b149695505050505050565b8181015b8083101561277c5783516101005b82851080156127395750600081115b1561276f5760031901600f82821c16600a8110612759578060570161275e565b806030015b90508086535060019094019361272a565b505060208401935061271c565b50505050565b600080806127908585613e1b565b905060408111806127a15750855184115b156127b35750600091508190506127df565b8585016020016127c581600084612861565b92506001820160011c6020036000518160031b1c94505050505b935093915050565b6020811061281f57815183526127fe602084613f05565b925061280b602083613f05565b9150612818602082613e1b565b90506127e7565b905182516020929092036101000a6000190180199091169116179052565b825160009061284c8385613f05565b111561285757600080fd5b5091016020012090565b60006128c1565b811a6000602f8211603a831016156128855750602f1981016103d6565b6047821060408311161561289e575060361981016103d6565b606782106060831116156128b7575060561981016103d6565b5061010092915050565b506001838201828216156128fd576128db60008651612868565b80855360018601955060018501945060ff8111156128fb57600092508195505b505b8085101561294b578451612912600182612868565b61291d600083612868565b60041b17905060ff81111561293657600092505061294b565b808553506002850194506001840193506128fd565b509392505050565b828054828255906000526020600020908101928215612999579160200282015b8281111561299957825182906129899082614001565b5091602001919060010190612973565b50610b9d9291505b80821115610b9d5760006129b582826129be565b506001016129a1565b5080546129ca9061348f565b6000825580601f106129da575050565b601f0160209004906000526020600020908101906115a391905b80821115610b9d57600081556001016129f4565b6001600160e01b0319811681146115a357600080fd5b803561174681612a08565b600060208284031215612a3b57600080fd5b81356120fd81612a08565b600060208284031215612a5857600080fd5b5035919050565b60005b83811015612a7a578181015183820152602001612a62565b50506000910152565b60008151808452612a9b816020860160208601612a5f565b601f01601f19169290920160200192915050565b6020815260006120fd6020830184612a83565b60008083601f840112612ad457600080fd5b50813567ffffffffffffffff811115612aec57600080fd5b602083019150836020828501011115612b0457600080fd5b9250929050565b60008060008060408587031215612b2157600080fd5b843567ffffffffffffffff80821115612b3957600080fd5b612b4588838901612ac2565b90965094506020870135915080821115612b5e57600080fd5b50612b6b87828801612ac2565b95989497509550505050565b634e487b7160e01b600052604160045260246000fd5b6040805190810167ffffffffffffffff81118282101715612bb057612bb0612b77565b60405290565b60405160a0810167ffffffffffffffff81118282101715612bb057612bb0612b77565b604051601f8201601f1916810167ffffffffffffffff81118282101715612c0257612c02612b77565b604052919050565b600067ffffffffffffffff821115612c2457612c24612b77565b5060051b60200190565b600067ffffffffffffffff821115612c4857612c48612b77565b50601f01601f191660200190565b600082601f830112612c6757600080fd5b8135612c7a612c7582612c2e565b612bd9565b818152846020838601011115612c8f57600080fd5b816020850160208301376000918101602001919091529392505050565b600082601f830112612cbd57600080fd5b81356020612ccd612c7583612c0a565b82815260059290921b84018101918181019086841115612cec57600080fd5b8286015b84811015612d2c57803567ffffffffffffffff811115612d105760008081fd5b612d1e8986838b0101612c56565b845250918301918301612cf0565b509695505050505050565b600060208284031215612d4957600080fd5b813567ffffffffffffffff811115612d6057600080fd5b61232384828501612cac565b60008060408385031215612d7f57600080fd5b823567ffffffffffffffff811115612d9657600080fd5b612da285828601612c56565b95602094909401359450505050565b606081526000612dc46060830186612a83565b6001600160a01b0394851660208401529290931660409091015292915050565b600060a08284031215612df657600080fd5b50919050565b60008083601f840112612e0e57600080fd5b50813567ffffffffffffffff811115612e2657600080fd5b6020830191508360208260051b8501011115612b0457600080fd5b60008060008060608587031215612e5757600080fd5b843567ffffffffffffffff80821115612e6f57600080fd5b612e7b88838901612de4565b95506020870135915080821115612e9157600080fd5b612e9d88838901612dfc565b90955093506040870135915080821115612eb657600080fd5b50612ec387828801612c56565b91505092959194509250565b604081526000612ee26040830185612a83565b90506001600160a01b03831660208301529392505050565b6001600160a01b03811681146115a357600080fd5b600060808284031215612f2157600080fd5b6040516080810167ffffffffffffffff8282108183111715612f4557612f45612b77565b8160405282935084359150612f5982612efa565b90825260208401359080821115612f6f57600080fd5b612f7b86838701612c56565b60208401526040850135915080821115612f9457600080fd5b50612fa185828601612c56565b604083015250606083013560608201525092915050565b60006020808385031215612fcb57600080fd5b823567ffffffffffffffff80821115612fe357600080fd5b9084019060408287031215612ff757600080fd5b612fff612b8d565b82358281111561300e57600080fd5b8301601f8101881361301f57600080fd5b803561302d612c7582612c0a565b81815260059190911b8201860190868101908a83111561304c57600080fd5b8784015b83811015613084578035878111156130685760008081fd5b6130768d8b83890101612f0f565b845250918801918801613050565b508452505050828401358281111561309b57600080fd5b6130a788828601612cac565b948201949094529695505050505050565b600081518084526020808501808196508360051b8101915082860160005b85811015613145578284038952815160806001600160a01b03825116865286820151818888015261310982880182612a83565b915050604080830151878303828901526131238382612a83565b60609485015198909401979097525050988501989350908401906001016130d6565b5091979650505050505050565b600081518084526020808501808196508360051b8101915082860160005b85811015613145578284038952613188848351612a83565b98850198935090840190600101613170565b6020815260008251604060208401526131b660608401826130b8565b90506020840151601f198483030160408501526131d38282613152565b95945050505050565b6000806000806000606086880312156131f457600080fd5b853567ffffffffffffffff8082111561320c57600080fd5b61321889838a01612de4565b9650602088013591508082111561322e57600080fd5b61323a89838a01612dfc565b9096509450604088013591508082111561325357600080fd5b5061326088828901612ac2565b969995985093965092949392505050565b60008060008060006060868803121561328957600080fd5b853567ffffffffffffffff808211156132a157600080fd5b6132ad89838a01612ac2565b909750955060208801359150808211156132c657600080fd5b6132d289838a01612ac2565b909550935060408801359150808211156132eb57600080fd5b506132f888828901612cac565b9150509295509295909350565b60006020828403121561331757600080fd5b813567ffffffffffffffff81111561332e57600080fd5b61232384828501612c56565b60008060006060848603121561334f57600080fd5b833567ffffffffffffffff8082111561336757600080fd5b61337387838801612c56565b945060208601359350604086013591508082111561339057600080fd5b5061339d86828701612cac565b9150509250925092565b6000815160a084526133bc60a0850182612a83565b905060208301516020850152604083015160408501526001600160a01b0360608401511660608501526080830151151560808501528091505092915050565b6020815260006120fd60208301846133a7565b6000806040838503121561342157600080fd5b823567ffffffffffffffff8082111561343957600080fd5b61344586838701612c56565b9350602085013591508082111561345b57600080fd5b5061346885828601612c56565b9150509250929050565b60006020828403121561348457600080fd5b81356120fd81612efa565b600181811c908216806134a357607f821691505b602082108103612df657634e487b7160e01b600052602260045260246000fd5b8035801515811461174657600080fd5b6000806000606084860312156134e857600080fd5b833567ffffffffffffffff8082111561350057600080fd5b9085019060a0828803121561351457600080fd5b61351c612bb6565b82358281111561352b57600080fd5b61353789828601612c56565b8252506020830135602082015260408301356040820152606083013561355c81612efa565b606082015261356d608084016134c3565b6080820152945061358060208701612a1e565b9350604086013591508082111561359657600080fd5b5061339d86828701612c56565b634e487b7160e01b600052603260045260246000fd5b600082601f8301126135ca57600080fd5b81516135d8612c7582612c2e565b8181528460208386010111156135ed57600080fd5b6135fe826020830160208701612a5f565b949350505050565b60006020828403121561361857600080fd5b815167ffffffffffffffff81111561362f57600080fd5b612323848285016135b9565b634e487b7160e01b600052601160045260246000fd5b6000600182016136635761366361363b565b5060010190565b60608152600061367d60608301866133a7565b828103602084015261368f81866130b8565b905082810360408401526136a38185612a83565b9695505050505050565b600082601f8301126136be57600080fd5b815160206136ce612c7583612c0a565b82815260059290921b840181019181810190868411156136ed57600080fd5b8286015b84811015612d2c57805167ffffffffffffffff8111156137115760008081fd5b61371f8986838b01016135b9565b8452509183019183016136f1565b60006020828403121561373f57600080fd5b815167ffffffffffffffff8082111561375757600080fd5b908301906060828603121561376b57600080fd5b60405160608101818110838211171561378657613786612b77565b60405282518281111561379857600080fd5b6137a4878286016135b9565b825250602083015160208201526040830151828111156137c357600080fd5b6137cf878286016136ad565b60408301525095945050505050565b60008235607e198336030181126137f457600080fd5b9190910192915050565b60006103d63683612f0f565b60608152600061381d6060830186612a83565b828103602084015261382f8186612a83565b9150506001600160a01b0383166040830152949350505050565b6000815160208301516001600160e01b0319808216935060048310156126165760049290920360031b82901b161692915050565b60006020828403121561388f57600080fd5b6120fd826134c3565b6000808335601e198436030181126138af57600080fd5b83018035915067ffffffffffffffff8211156138ca57600080fd5b602001915036819003821315612b0457600080fd5b6000602080830181845280855180835260408601915060408160051b870101925083870160005b8281101561393457603f19888603018452613922858351612a83565b94509285019290850190600101613906565b5092979650505050505050565b6001600160e01b031981358181169160048510156139695780818660040360031b1b83161692505b505092915050565b6000808585111561398157600080fd5b8386111561398e57600080fd5b5050820193919092039150565b600082601f8301126139ac57600080fd5b813560206139bc612c7583612c0a565b82815260059290921b840181019181810190868411156139db57600080fd5b8286015b84811015612d2c57803567ffffffffffffffff8111156139ff5760008081fd5b613a0d8986838b0101612c56565b8452509183019183016139df565b600060208284031215613a2d57600080fd5b813567ffffffffffffffff811115613a4457600080fd5b6123238482850161399b565b60008060408385031215613a6357600080fd5b823567ffffffffffffffff80821115613a7b57600080fd5b818501915085601f830112613a8f57600080fd5b81356020613a9f612c7583612c0a565b82815260059290921b84018101918181019089841115613abe57600080fd5b948201945b83861015613ae357613ad4866134c3565b82529482019490820190613ac3565b96505086013592505080821115613af957600080fd5b506134688582860161399b565b604081526000613b196040830185612a83565b82810360208401526131d38185612a83565b600082516137f4818460208701612a5f565b602081526000825160606020840152613b596080840182612a83565b9050602084015160408401526040840151601f198483030160608501526131d38282613152565b600080600060608486031215613b9557600080fd5b833567ffffffffffffffff80821115613bad57600080fd5b613bb987838801612c56565b94506020860135915080821115613bcf57600080fd5b50613bdc86828701612c56565b9250506040840135613bed81612efa565b809150509250925092565b600060208284031215613c0a57600080fd5b81516120fd81612efa565b805161174681612a08565b600060208284031215613c3257600080fd5b815167ffffffffffffffff80821115613c4a57600080fd5b9083019060a08286031215613c5e57600080fd5b613c66612bb6565b8251613c7181612efa565b81526020830151613c8181612a08565b6020820152604083015182811115613c9857600080fd5b613ca4878286016135b9565b604083015250613cb660608401613c15565b6060820152608083015182811115613ccd57600080fd5b613cd9878286016135b9565b60808301525095945050505050565b606081526000613cfb60608301866133a7565b6001600160e01b03198516602084015282810360408401526136a38185612a83565b60006020808301818452808551808352604092508286019150828160051b87010184880160005b83811015613da957603f19898403018552815160606001600160a01b03825116855288820151818a870152613d7b82870182613152565b91505087820151915084810388860152613d958183612a83565b968901969450505090860190600101613d44565b509098975050505050505050565b6001600160a01b038616815260a060208201526000613dd960a0830187613152565b8281036040840152613deb8187612a83565b90506001600160e01b0319851660608401528281036080840152613e0f8185612a83565b98975050505050505050565b818103818111156103d6576103d661363b565b60008651613e40818460208b01612a5f565b6001600160f81b03198781169184019182528651613e65816001850160208b01612a5f565b908616600192909101918201528351613e85816002840160208801612a5f565b01600201979650505050505050565b602081526001600160a01b038251166020820152600060208301516001600160e01b031980821660408501526040850151915060a06060850152613edb60c0850183612a83565b9150806060860151166080850152506080840151601f198483030160a08501526131d38282612a83565b808201808211156103d6576103d661363b565b600080600080600060a08688031215613f3057600080fd5b8551613f3b81612efa565b602087015190955067ffffffffffffffff80821115613f5957600080fd5b613f6589838a016136ad565b95506040880151915080821115613f7b57600080fd5b613f8789838a016135b9565b945060608801519150613f9982612a08565b608088015191935080821115613fae57600080fd5b506132f8888289016135b9565b601f82111561151157600081815260208120601f850160051c81016020861015613fe25750805b601f850160051c820191505b81811015611ad657828155600101613fee565b815167ffffffffffffffff81111561401b5761401b612b77565b61402f81614029845461348f565b84613fbb565b602080601f831160018114614064576000841561404c5750858301515b600019600386901b1c1916600185901b178555611ad6565b600085815260208120601f198616915b8281101561409357888601518255948401946001909101908401614074565b50858210156140b15787850151600019600388901b60f8161c191681555b5050505050600190811b0190555056fea2646970667358221220355bf7593bffbfafdc2482fe96b45dc0b922efa938632fff40f2daeafb19f51d64736f6c63430008110033",
  "devdoc": {
    "errors": {
      "DNSDecodingFailed(bytes)": [
        {
          "details": "The DNS-encoded name is malformed."
        }
      ],
      "DNSEncodingFailed(string)": [
        {
          "details": "A label of the ENS name has an invalid size."
        }
      ],
      "EmptyAddress()": [
        {
          "details": "The supplied address was `0x`."
        }
      ],
      "HttpError(uint16,string)": [
        {
          "details": "Error selector: `0x01800152`"
        }
      ],
      "InvalidBatchGatewayResponse()": [
        {
          "details": "The batch gateway supplied an incorrect number of responses."
        }
      ],
      "OffchainLookup(address,string[],bytes,bytes4,bytes)": [
        {
          "details": "https://eips.ethereum.org/EIPS/eip-3668 Error selector: `0x556f1830`"
        }
      ],
      "ResolverError(bytes)": [
        {
          "details": "Error selector: `0x95c0c752`"
        }
      ],
      "ResolverNotContract(bytes,address)": [
        {
          "details": "Error selector: `0x1e9535f2`"
        }
      ],
      "ResolverNotFound(bytes)": [
        {
          "details": "Error selector: `0x77209fe8`"
        }
      ],
      "ReverseAddressMismatch(string,bytes)": [
        {
          "details": "Error selector: `0xef9c03ce`"
        }
      ],
      "UnsupportedResolverProfile(bytes4)": [
        {
          "details": "Error selector: `0x7b1c461b`"
        }
      ]
    },
    "kind": "dev",
    "methods": {
      "ccipBatch(((address,bytes,bytes,uint256)[],string[]))": {
        "details": "Use `CCIPReader.ccipRead()` to call this function with a batch.      The callback `response` will be `abi.encode(batch)`."
      },
      "ccipBatchCallback(bytes,bytes)": {
        "details": "CCIP-Read callback for `ccipBatch()`.      Updates `batch` using the batch gateway response. Reverts again if not \"done\".",
        "params": {
          "extraData": "The contextual data passed from `ccipBatch()`.",
          "response": "The response from the batch gateway."
        },
        "returns": {
          "batch": "The batch where every lookup is \"done\"."
        }
      },
      "ccipReadCallback(bytes,bytes)": {
        "details": "CCIP-Read callback for `ccipRead()`.The return type of this function is polymorphic depending on the caller.",
        "params": {
          "extraData": "The contextual data passed from `ccipRead()`.",
          "response": "The response from offchain."
        }
      },
      "findResolver(bytes)": {
        "details": "Find the resolver address for `name`.      Does not perform any validity checks.",
        "params": {
          "name": "The name to search."
        }
      },
      "owner()": {
        "details": "Returns the address of the current owner."
      },
      "renounceOwnership()": {
        "details": "Leaves the contract without owner. It will not be possible to call `onlyOwner` functions. Can only be called by the current owner. NOTE: Renouncing ownership will leave the contract without an owner, thereby disabling any functionality that is only available to the owner."
      },
      "requireResolver(bytes)": {
        "details": "Returns a valid resolver for `name` or reverts.",
        "params": {
          "name": "The name to search."
        },
        "returns": {
          "info": "The resolver information."
        }
      },
      "resolveBatchCallback(bytes,bytes)": {
        "details": "CCIP-Read callback for `_resolveBatch()`.",
        "params": {
          "extraData": "The contextual data from `_resolveBatch()`.",
          "response": "The response data from `CCIPBatcher`."
        }
      },
      "resolveCallback((bytes,uint256,bytes32,address,bool),(address,bytes,bytes,uint256)[],bytes)": {
        "details": "CCIP-Read callback for `resolveWithGateways()` (step 2 of 2).",
        "params": {
          "extraData": "The contextual data passed from `resolveWithGateways()`.",
          "info": "The resolver that was called.",
          "lookups": "The lookups corresponding to the requested call."
        },
        "returns": {
          "resolver": "The address of the resolver that supplied `result`.",
          "result": "The encoded response for the requested call."
        }
      },
      "resolveWithGateways(bytes,bytes,string[])": {
        "details": "This function executes over multiple steps (step 1 of 2).",
        "returns": {
          "_0": "result The encoded response for the requested call.",
          "_1": "resolver The address of the resolver that supplied `result`."
        }
      },
      "reverseAddressCallback((bytes,uint256,bytes32,address,bool),(address,bytes,bytes,uint256)[],bytes)": {
        "details": "CCIP-Read callback for `reverseNameCallback()` (step 3 of 3).      Reverts `ReverseAddressMismatch`.",
        "params": {
          "extraData": "The contextual data passed from `reverseNameCallback()`.",
          "info": "The resolver for the primary name that was called.",
          "lookups": "The lookups corresponding to the calls: `[addr()]`."
        },
        "returns": {
          "primary": "The resolved primary name.",
          "resolver": "The resolver address for primary name.",
          "reverseResolver": "The resolver address for the reverse name."
        }
      },
      "reverseNameCallback((bytes,uint256,bytes32,address,bool),(address,bytes,bytes,uint256)[],bytes)": {
        "details": "CCIP-Read callback for `reverseWithGateways()` (step 2 of 3).",
        "params": {
          "extraData": "The contextual data passed from `reverseWithGateways()`.",
          "infoRev": "The resolver for the reverse name that was called.",
          "lookups": "The lookups corresponding to the calls: `[name()]`."
        }
      },
      "reverseWithGateways(bytes,uint256,string[])": {
        "details": "This function executes over multiple steps (step 1 of 3).",
        "params": {
          "coinType": "The coin type.",
          "gateways": "The list of batch gateway URLs to use.",
          "lookupAddress": "The input address."
        }
      },
      "setBatchGateways(string[])": {
        "details": "Set the default batch gateways, see: `resolve()` and `reverse()`.",
        "params": {
          "gateways": "The list of batch gateway URLs to use as default."
        }
      },
      "supportsInterface(bytes4)": {
        "details": "See {IERC165-supportsInterface}."
      },
      "transferOwnership(address)": {
        "details": "Transfers ownership of the contract to a new account (`newOwner`). Can only be called by the current owner."
      }
    },
    "version": 1
  },
  "userdoc": {
    "errors": {
      "HttpError(uint16,string)": [
        {
          "notice": "An HTTP error occurred on a resolving gateway."
        }
      ],
      "ResolverError(bytes)": [
        {
          "notice": "The resolver returned an error."
        }
      ],
      "ResolverNotContract(bytes,address)": [
        {
          "notice": "The resolver is not a contract."
        }
      ],
      "ResolverNotFound(bytes)": [
        {
          "notice": "A resolver could not be found for the supplied name."
        }
      ],
      "ReverseAddressMismatch(string,bytes)": [
        {
          "notice": "The resolved address from reverse resolution does not match the supplied address."
        }
      ],
      "UnsupportedResolverProfile(bytes4)": [
        {
          "notice": "The resolver did not respond."
        }
      ]
    },
    "kind": "user",
    "methods": {
      "resolve(bytes,bytes)": {
        "notice": "Same as `resolveWithGateways()` but uses default batch gateways."
      },
      "resolveWithGateways(bytes,bytes,string[])": {
        "notice": "Performs ENS name resolution for the supplied name and resolution data.Callers should enable EIP-3668."
      },
      "reverse(bytes,uint256)": {
        "notice": "Same as `reverseWithGateways()` but uses default batch gateways."
      },
      "reverseWithGateways(bytes,uint256,string[])": {
        "notice": "Performs ENS reverse resolution for the supplied address and coin type.Callers should enable EIP-3668."
      }
    },
    "version": 1
  },
  "storageLayout": {
    "storage": [
      {
        "astId": 444,
        "contract": "contracts/universalResolver/UniversalResolver.sol:UniversalResolver",
        "label": "_owner",
        "offset": 0,
        "slot": "0",
        "type": "t_address"
      },
      {
        "astId": 21415,
        "contract": "contracts/universalResolver/UniversalResolver.sol:UniversalResolver",
        "label": "batchGateways",
        "offset": 0,
        "slot": "1",
        "type": "t_array(t_string_storage)dyn_storage"
      }
    ],
    "types": {
      "t_address": {
        "encoding": "inplace",
        "label": "address",
        "numberOfBytes": "20"
      },
      "t_array(t_string_storage)dyn_storage": {
        "base": "t_string_storage",
        "encoding": "dynamic_array",
        "label": "string[]",
        "numberOfBytes": "32"
      },
      "t_string_storage": {
        "encoding": "bytes",
        "label": "string",
        "numberOfBytes": "32"
      }
    }
  }
}